:020000040800F2
:1000000000000220F5430008CD0E0008CF0E0008C6
:10001000D10E0008D30E0008D50E00080000000025
:10002000000000000000000000000000413A00084D
:10003000D70E000800000000E13A0008D73500089C
:10004000454400084544000845440008454400086C
:10005000454400084544000845440008454400085C
:10006000454400084544000845440008454400084C
:10007000454400084544000845440008454400083C
:100080004544000845440008D90E0008000000005F
:1000900000000000000000000000000045440008CF
:1000A0004544000845440008E90E0008454400089E
:1000B00045440008454400084544000845440008FC
:1000C00045440008454400084544000845440008EC
:1000D000454400084544000845440008000000006D
:1000E000F90E0008454400084544000800000000DF
:1000F000000000000000000000000000454400086F
:10010000000000004544000845440008454400083C
:1001100000000000000000000000000000000000DF
:10012000454400084544000845440008454400088B
:10013000454400080000000000000000000000002E
:10014000000000000000000000000000454400081E
:10015000454400084544000845440008454400085B
:10016000454400084544000800000000000000006D
:10017000000000000000000000000000000000007F
:1001800000000000454400080000000000000000DE
:08019000454400084544000845
:1001A00010B5054C237833B9044B13B10448AFF3B1
:1001B00000800123237010BD7400002000000000A7
:1001C000D054000808B5034B1BB103490348AFF3F3
:1001D000008008BD0000000078000020D054000816
:1001E00001F0FF01102A2BDB10F0070F08D010F8E8
:1001F000013B013A8B422DD010F0070F42B3F6D1EC
:10020000F0B441EA012141EA014122F007047FF004
:1002100000070023F0E80256083C85EA010586EA5B
:10022000010685FA47F5A3FA87F586FA47F6A5FA97
:1002300087F68EB9EED1F0BC01F0FF0102F00702A3
:1002400032B110F8013B013A83EA010313B1F8D14E
:100250000020704701387047002D06BF354603382F
:10026000073815F0010F07D1013015F4807F02BF68
:10027000013015F4C03F0130F0BC0138704700BFB9
:1002800070B54FF0FF0C4CF4E06C1CEA11541DBF2C
:100290001CEA135594EA0C0F95EA0C0F00F0DEF8F7
:1002A0002C4481EA030621EA4C5123EA4C5350EADC
:1002B000013518BF52EA033541F4801143F480132D
:1002C00038D0A0FB02CE4FF00005E1FB02E506F0BE
:1002D0000042E0FB03E54FF00006E1FB03569CF013
:1002E000000F18BF4EF0010EA4F1FF04B6F5007F19
:1002F00064F5407404D25FEA4E0E6D4146EB06068B
:1003000042EAC62141EA55514FEAC52040EA5E5013
:100310004FEACE2EB4F1FD0C88BFBCF5E06F1ED8BD
:10032000BEF1004F08BF5FEA500E50F1000041EBF4
:10033000045170BD06F0004646EA010140EA0200A1
:1003400081EA0301B4EB5C04C2BFD4EB0C0541EAC3
:10035000045170BD41F480114FF0000E013C00F3D8
:10036000AB8014F1360FDEBF002001F0004170BDFC
:10037000C4F10004203C35DA0C341BDC04F1140415
:10038000C4F1200500FA05F320FA04F001FA05F2A1
:1003900040EA020001F0004221F0004110EBD3706E
:1003A00021FA04F642EB06015EEA430E08BF20EA9A
:1003B000D37070BDC4F10C04C4F1200500FA04F33D
:1003C00020FA05F001FA04F240EA020001F00041CF
:1003D00010EBD37041F100015EEA430E08BF20EA42
:1003E000D37070BDC4F1200500FA05F24EEA020E8A
:1003F00020FA04F301FA05F243EA020321FA04F0B9
:1004000001F0004121FA04F220EA020000EBD3706F
:100410005EEA430E08BF20EAD37070BD94F0000F6F
:100420000FD101F00046400041EB010111F4801FA3
:1004300008BF013CF7D041EA060195F0000F18BF54
:10044000704703F00046520043EB030313F4801F90
:1004500008BF013DF7D043EA0603704794EA0C0F4A
:100460000CEA135518BF95EA0C0F0CD050EA410660
:1004700018BF52EA4306D1D181EA030101F00041DD
:100480004FF0000070BD50EA410606BF1046194605
:1004900052EA430619D094EA0C0F02D150EA013611
:1004A00013D195EA0C0F05D152EA03361CBF104652
:1004B00019460AD181EA030101F0004141F0FE41F1
:1004C00041F470014FF0000070BD41F0FE4141F475
:1004D000780170BD81F0004102E000BF83F000436D
:1004E00030B54FEA41044FEA430594EA050F08BFCF
:1004F00090EA020F1FBF54EA000C55EA020C7FEA93
:10050000645C7FEA655C00F0E2804FEA5454D4EB0F
:100510005555B8BF6D420CDD2C4480EA020281EAD9
:10052000030382EA000083EA010180EA020281EA11
:100530000303362D88BF30BD11F0004F4FEA013163
:100540004FF4801C4CEA113102D0404261EB410172
:1005500013F0004F4FEA03334CEA133302D05242F8
:1005600063EB430394EA050F00F0A780A4F10104B4
:10057000D5F1200E0DDB02FA0EFC22FA05F28018EE
:1005800041F1000103FA0EF2801843FA05F35941D4
:100590000EE0A5F120050EF1200E012A03FA0EFC53
:1005A00028BF4CF0020C43FA05F3C01851EBE3717D
:1005B00001F0004507D54FF0000EDCF1000C7EEB9A
:1005C00000006EEB0101B1F5801F1BD3B1F5001FD8
:1005D0000CD349085FEA30004FEA3C0C04F10104F7
:1005E0004FEA445212F5800F80F09A80BCF1004F20
:1005F00008BF5FEA500C50F1000041EB045141EAA2
:10060000050130BD5FEA4C0C404141EB0101013C6A
:1006100028BFB1F5801FE9D291F0000F04BF014659
:100620000020B1FA81F308BF2033A3F10B03B3F12B
:1006300020020CDA0C3208DD02F1140CC2F10C02BB
:1006400001FA0CF021FA02F10CE002F11402D8BF19
:10065000C2F1200C01FA02F120FA0CFCDCBF41EAE5
:100660000C019040E41AA2BF01EB0451294330BDB4
:100670006FEA04041F3C1CDA0C340EDC04F1140491
:10068000C4F1200220FA04F001FA02F340EA030068
:1006900021FA04F345EA030130BDC4F10C04C4F1AE
:1006A000200220FA02F001FA04F340EA030029468E
:1006B00030BD21FA04F0294630BD94F0000F83F4D8
:1006C000801306BF81F480110134013D4EE77FEABB
:1006D000645C18BF7FEA655C29D094EA050F08BF07
:1006E00090EA020F05D054EA000C04BF19461046E8
:1006F00030BD91EA030F1EBF0021002030BD5FEA2C
:10070000545C05D14000494128BF41F0004130BD53
:1007100014F580043CBF01F5801130BD01F00045A7
:1007200045F0FE4141F470014FF0000030BD7FEA1A
:10073000645C1ABF194610467FEA655C1CBF0B4615
:10074000024650EA013406BF52EA033591EA030F2C
:1007500041F4002130BD00BF90F0000F04BF002124
:10076000704730B54FF4806404F132044FF0000557
:100770004FF0000150E700BF90F0000F04BF0021D0
:10078000704730B54FF4806404F1320410F0004536
:1007900048BF40424FF000013EE700BF42004FEA31
:1007A000E2014FEA31014FEA02701FBF12F07F43AE
:1007B00093F07F4F81F06051704732F07F4208BF65
:1007C000704793F07F4F04BF41F40021704730B56C
:1007D0004FF4607401F0004521F000411CE700BFB8
:1007E00050EA010208BF704730B54FF000050AE03B
:1007F00050EA010208BF704730B511F0004502D53C
:10080000404261EB41014FF4806404F132045FEA3D
:10081000915C3FF4D8AE4FF003025FEADC0C18BFE6
:1008200003325FEADC0C18BF033202EBDC02C2F1D8
:10083000200300FA03FC20FA02F001FA03FE40EA6A
:100840000E0021FA02F11444BDE600BF4A0011D2A5
:1008500012F5001211D20DD56FF47873B3EB62521A
:100860000ED44FEAC12343F0004343EA505323FA26
:1008700002F070474FF00000704750EA013002D19B
:100880004FF0FF3070474FF00000704753B94AB93E
:10089000002908BF00281CBF4FF0FF314FF0FF3088
:1008A00000F074B9ADF1080C6DE904CE00F006F863
:1008B000DDF804E0DDE9022304B070472DE9F047DC
:1008C000089D04468E46002B4DD18A42944669D934
:1008D000B2FA82F252B101FA02F3C2F1200120FA17
:1008E00001F10CFA02FC41EA030E94404FEA1C4865
:1008F000210CBEFBF8F61FFA8CF708FB16E341EA61
:10090000034306FB07F199420AD91CEB030306F1E6
:10091000FF3080F01F81994240F21C81023E634407
:100920005B1AA4B2B3FBF8F008FB103344EA0344AB
:1009300000FB07F7A7420AD91CEB040400F1FF33C0
:1009400080F00A81A74240F207816444023840EAFD
:100950000640E41B00261DB1D4400023C5E9004336
:100960003146BDE8F0878B4209D9002D00F0EF80B9
:100970000026C5E9000130463146BDE8F087B3FAEC
:1009800083F6002E4AD18B4202D3824200F2F980D4
:10099000841A61EB030301209E46002DE0D0C5E9D7
:1009A000004EDDE702B9FFDEB2FA82F2002A40F023
:1009B0009280A1EB0C014FEA1C471FFA8CFE012626
:1009C000200CB1FBF7F307FB131140EA01410EFBCA
:1009D00003F0884208D91CEB010103F1FF3802D271
:1009E000884200F2CB804346091AA4B2B1FBF7F06B
:1009F00007FB101144EA01440EFB00FEA64508D98E
:100A00001CEB040400F1FF3102D2A64500F2BB80CA
:100A10000846A4EB0E0440EA03409CE7C6F1200719
:100A2000B34022FA07FC4CEA030C20FA07F401FA5F
:100A300006F31C43F9404FEA1C4900FA06F3B1FBE8
:100A4000F9F8200C1FFA8CFE09FB181140EA01414D
:100A500008FB0EF0884202FA06F20BD91CEB0101EA
:100A600008F1FF3A80F08880884240F28580A8F142
:100A700002086144091AA4B2B1FBF9F009FB101194
:100A800044EA014100FB0EFE8E4508D91CEB010132
:100A900000F1FF346CD28E456AD90238614440EAD5
:100AA0000840A0FB0294A1EB0E01A142C846A64655
:100AB00056D353D05DB1B3EB080261EB0E0101FADE
:100AC00007F722FA06F3F1401F43C5E9007100263B
:100AD0003146BDE8F087C2F12003D8400CFA02FC91
:100AE00021FA03F3914001434FEA1C471FFA8CFEA1
:100AF000B3FBF7F007FB10360B0C43EA064300FB91
:100B00000EF69E4204FA02F408D91CEB030300F12E
:100B1000FF382FD29E422DD9023863449B1B89B2E5
:100B2000B3FBF7F607FB163341EA034106FB0EF36E
:100B30008B4208D91CEB010106F1FF3816D28B421B
:100B400014D9023E6144C91A46EA004638E72E46E7
:100B5000284605E70646E3E61846F8E64B45A9D2DF
:100B6000B9EB020864EB0C0E0138A3E74646EAE74E
:100B7000204694E74046D1E7D0467BE7023B6144FC
:100B800032E7304609E76444023842E7704700BF65
:100B900030B58BB00024059406940794089409940A
:100BA0000194264B1A6B42F004021A631A6B02F08E
:100BB00004020192019A02941A6B42F080021A63B5
:100BC0001A6B02F080020292029A03941A6B42F0AE
:100BD00001021A631A6B02F001020392039A049451
:100BE0001A6B42F002021A631B6B03F002030493B8
:100BF000049B134D22462021284600F083FE4FF42B
:100C0000005305934FF404130693079405A90D4868
:100C100000F098FD20230593012306930794089480
:100C200005A9284600F08EFD22460521282000F067
:100C300099FE282000F0CEFE0BB030BD00380240F7
:100C4000000002400008024008B5044803F0C2FC5E
:100C500041F2883002F058FDF7E700BFE854000881
:100C600010B51B4C204603F065F96421204603F0C3
:100C7000E5F9174803F03EFA0446164803F0AAFCCB
:100C80002146154803F020FC1448A0FB0430241A28
:100C900000EB5400C00AFFF75FFD0BA3D3E900236C
:100CA000FFF7EEFA00220E4BFFF71AFCFFF7CEFD1E
:100CB00001460C4803F008FC41F2883002F024FDA4
:100CC000D7E700BFAFF300806666666666660A40D7
:100CD00094000020FC540008105500080101100089
:100CE000000039402455000800B583B001904FF64C
:100CF000FF73012201A9034801F047F9019803B0ED
:100D00005DF804FBDC00002008B50268034B9A4242
:100D100000D008BD00F086FEFBE700BF00480140A0
:100D200008B52021014800F0F3FD08BD0000024095
:100D300072B6FEE708B50A480A4B03604FF4E13388
:100D4000436000238360C36003610C2242618361BE
:100D5000C36101F0EAF800B908BDFFF7E9FF00BF81
:100D6000DC0000200044004000B585B00023009363
:100D70000193029303931448144A02604FF48032A3
:100D80004260836003610122027680F82030C362F2
:100D90000F498162C360C26180F83030426103F064
:100DA0009DF868B90B4B0093012301930023029334
:100DB0006946054803F046FA20B905B05DF804FB22
:100DC000FFF7B6FFFFF7B4FF9400002000200140BA
:100DD0000100000F1200001000B595B03022002174
:100DE00008A803F069FB002303930493059306937B
:100DF000079301931E4A116C41F080511164126CEB
:100E000002F080520192019A02931A4A116841F449
:100E100040411160126802F440420292029A02219B
:100E2000089101220B9210220C920E910F931092B6
:100E30004FF4A873119304231293139308A800F09E
:100E400027F980B90F23039302210491002305930E
:100E50004FF480520692079303A800F07FFB20B95D
:100E600015B05DF804FBFFF763FFFFF761FF00BFFC
:100E7000003802400070004008B500F0B9FDFFF7EF
:100E8000ABFFFFF785FEFFF755FFFFF76DFF02F0A1
:100E9000AFFB084A0021084802F0D8FB074B186056
:100EA000074A0021074802F0D1FB074B186002F007
:100EB000B1FBFEE754550008490C000890000020E3
:100EC00078550008610C000824010020FEE7FEE7C9
:100ED000FEE7FEE7FEE7704708B5024803F010F9A9
:100EE00008BD00BF9400002008B5024800F0EEFDE8
:100EF00008BD00BF2801002008B54FF4005000F0E5
:100F000011FD08BD00B583B0002200920D4B596C55
:100F100041F480415964596C01F480410091009979
:100F20000192196C41F0805119641B6C03F08053DD
:100F30000193019B0F216FF0010000F013FD03B03E
:100F40005DF804FB0038024002680E4B9A4200D064
:100F5000704700B583B00022019203F58C33596CC1
:100F600041F4807159645B6C03F480730193019BBD
:100F70000521122000F0F6FC122000F02BFD03B03A
:100F80005DF804FB0020014000B589B00023039305
:100F900004930593069307930268154B9A4202D077
:100FA00009B05DF804FB0021019103F5FA331A6CD6
:100FB00042F400321A641A6C02F400320192019A6F
:100FC00002911A6B42F001021A631B6B03F00103DA
:100FD0000293029B0C23039302230493032306939F
:100FE0000723079303A9034800F0ACFBD8E700BF31
:100FF000004400400000024030B589B0054600249E
:1010000001941E4B5A6C42F480225A645B6C03F4C8
:1010100080230193019B02A903A800F075FB00F057
:1010200063FB03461648A0FB03239B0C013B1548BA
:10103000154A026040F2E732C26043600461846096
:10104000846100F049FE044610B1204609B030BD6D
:101050000C4800F0FBFC04460028F6D11A2000F0F2
:10106000B9FC0F2D01D90124EFE7002229461A20EF
:1010700000F078FC054B1D60E7E700BF0038024038
:1010800083DE1B43280100200048014004000020AB
:10109000002800F0E08170B582B00446036813F0C8
:1010A000010F3BD09F4B9B6803F00C03042B2CD00B
:1010B0009C4B9B6803F00C03082B21D06368B3F5AD
:1010C000803F4FD0B3F5A02F52D0964B1A6822F430
:1010D00080321A601A6822F480221A606368002B3A
:1010E00050D000F0ABFC05468E4B1B6813F4003F5C
:1010F00014D100F0A3FC401B6428F5D90320B1E112
:10110000884B5B6813F4800FD8D0864B1B6813F4B0
:10111000003F03D06368002B00F09F81236813F029
:10112000020F54D07F4B9B6813F00C0F3ED07D4BC9
:101130009B6803F00C03082B33D0E368002B68D0C6
:10114000794B01221A6000F079FC0546754B1B684B
:1011500013F0020F54D100F071FC401B0228F5D9A6
:1011600003207FE16F4A136843F480331360B5E7CF
:101170006C4B1A6842F480221A601A6842F480327A
:101180001A60ABE700F05AFC0546664B1B6813F487
:10119000003FC3D000F052FC401B6428F5D9032067
:1011A00060E1604B5B6813F4800FC6D15D4B1B6838
:1011B00013F0020F03D0E368012B40F05081594A2D
:1011C000136823F0F803216943EAC103136023681D
:1011D00013F0080F42D063696BB3534B0122C3F87D
:1011E000802E00F02BFC05464E4B5B6F13F0020F78
:1011F00034D100F023FC401B0228F5D9032031E153
:10120000484A136823F0F803216943EAC1031360D5
:10121000DDE7454B00221A6000F010FC0546414B0B
:101220001B6813F0020FD2D000F008FC401B02280C
:10123000F5D9032016E13C4B0022C3F8802E00F0C4
:10124000FDFB0546374B5B6F13F0020F06D000F035
:10125000F5FB401B0228F5D9032003E1236813F0B6
:10126000040F77D02F4B1B6C13F0805F33D100231A
:1012700001932C4B1A6C42F080521A641B6C03F0E1
:1012800080530193019B0125284B1B6813F4807F39
:1012900023D0A368012B34D0052B38D0214B1A6FF3
:1012A00022F001021A671A6F22F004021A67A3687B
:1012B000002B3DD000F0C2FB06461A4B1B6F13F00B
:1012C000020F46D100F0BAFB801B41F288339842EE
:1012D000F3D90320C6E00025D6E7144A136843F487
:1012E0008073136000F0AAFB0646104B1B6813F4D2
:1012F000807FCED100F0A2FB801B0228F5D903200D
:10130000B0E0084A136F43F001031367CFE7054BC2
:101310001A6F42F004021A671A6F42F001021A674C
:10132000C5E700BF0038024000004742007000409F
:1013300000F084FB0646524B1B6F13F0020F08D0DF
:1013400000F07CFB801B41F288339842F3D90320E4
:1013500088E0EDB9A369002B00F08380484A9268C9
:1013600002F00C02082A51D0022B17D0454B002264
:101370001A6600F063FB0446414B1B6813F0007FC4
:1013800042D000F05BFB001B0228F5D9032069E086
:101390003B4A136C23F080531364DBE7394B002284
:1013A0001A6600F04BFB0546354B1B6813F0007FB7
:1013B00006D000F043FB401B0228F5D9032051E082
:1013C000E369226A1343626A43EA8213A26A5208FB
:1013D000013A43EA0243E26A43EA0263284A53605D
:1013E000284B01221A6600F029FB0446244B1B6897
:1013F00013F0007F06D100F021FB001B0228F5D975
:1014000003202FE000202DE000202BE0012B2BD02B
:101410001B4B5B6803F48001E269914226D103F023
:101420003F02216A8A4223D1616A47F6C0721A409C
:10143000B2EB811F1ED103F44031A26A5208013A77
:10144000B1EB024F18D103F07063E26AB3EB026FA5
:1014500014D1002006E001207047012002E00120A5
:1014600000E0002002B070BD0120FBE70120F9E799
:101470000120F7E70120F5E70120F3E70120F1E77C
:10148000003802400000474208B5314B9B6803F02A
:101490000C03042B57D0082B57D12D4B5A6802F060
:1014A0003F025B6813F4800F2AD0294B5968C1F3BF
:1014B000881C4FEA4C11B1EB0C006EEB0E0E4FEA9C
:1014C0008E1343EA90638101091A63EB0E03DB007C
:1014D00043EA5173C90011EB0C0C43F100035902AC
:1014E00000234FEA4C2041EADC51FFF7CFF9184BBB
:1014F0005B68C3F3014301335B00B0FBF3F025E00D
:10150000134B5968C1F3881C4FEA4C11B1EB0C0026
:101510006EEB0E0E4FEA8E1343EA90638101091AB7
:1015200063EB0E03DB0043EA5173C90011EB0C0CB3
:1015300043F10003990200234FEA8C2041EA9C51B9
:10154000FFF7A4F9D3E7034800E0034808BD00BF54
:101550000038024000127A000024F400002800F055
:101560009B8070B50D4604464F4B1B6803F0070384
:101570008B4208D2CBB24C4A1370136803F00703B6
:101580008B4240F08B80236813F0020F17D013F0CA
:10159000040F04D0454A936843F4E05393602368F2
:1015A00013F0080F04D0414A936843F460439360FA
:1015B0003E4A936823F0F003A1680B4393602368CD
:1015C00013F0010F32D06368012B21D09A1E012A3B
:1015D00025D9364A126812F0020F61D033498A6861
:1015E00022F0030213438B6000F028FA06462F4BCB
:1015F0009B6803F00C036268B3EB820F16D000F017
:101600001DFA801B41F288339842F0D9032042E052
:10161000264A126812F4003FE0D101203BE0234A41
:10162000126812F0007FD9D1012034E01E4B1B68F4
:1016300003F00703AB4207D9EAB21B4B1A701B68D1
:1016400003F00703AB422DD1236813F0040F06D03B
:10165000164A936823F4E053E1680B4393602368D0
:1016600013F0080F07D0114A936823F460432169EF
:1016700043EAC1039360FFF707FF0C4B9B68C3F37A
:1016800003130B4AD35CD8400A4B18600A4B186806
:10169000FFF7B2FC002070BD012070470120FAE77F
:1016A0000120F8E70120F6E7003C02400038024044
:1016B0009C5500080800002004000020014B186819
:1016C000704700BF0800002008B5FFF7F7FF044B84
:1016D0009B68C3F38223034AD35CD84008BD00BF94
:1016E00000380240AC55000808B5FFF7E7FF044B8F
:1016F0009B68C3F34233034AD35CD84008BD00BFA4
:1017000000380240AC5500080F2303600B4B9A6869
:1017100002F0030242609A6802F0F00282609A6866
:1017200002F4E052C2609B68DB0803F4E0530361FB
:10173000034B1B6803F007030B607047003802403F
:10174000003C024000230F2B00F2D28070B582B023
:1017500060E085685E000324B44025EA0405CC6897
:10176000B4402C438460456825EA02054C68C4F304
:1017700000129A402A4342605AE0DC08083450F8CC
:10178000246003F0070295000F22AA4026EA020E09
:101790000A69AA4042EA0E0240F824205CE00422D2
:1017A00000E0002202FA0EF22A430234514D45F8BD
:1017B0002420514A94686FEA0C0224EA0C054E6812
:1017C00016F4801F01D04CEA04054B4CA560E46878
:1017D00002EA04054E6816F4001F01D04CEA040525
:1017E000454CE560646802EA04054E6816F4003F63
:1017F00001D04CEA0405404C6560246822404D68E5
:1018000015F4803F01D04CEA04023B4C22600133C6
:101810000F2B6BD801229A400C6804EA020C32EAC2
:101820000404F4D14C6804F00304013C012C90D969
:101830004A6802F00302032A09D0C4685D0003224B
:10184000AA4024EA02048A68AA402243C2604A6885
:1018500002F00302022A90D004684FEA430E0322EA
:1018600002FA0EF224EA02044A6802F0030202FAC3
:101870000EF2224302604A6812F4403FC7D00022B1
:1018800001921E4A546C44F480445464526C02F435
:1018900080420192019A9C08A51C164A52F82550D4
:1018A00003F003024FEA820E0F2202FA0EF225EA3B
:1018B0000205134A90423FF474AF02F580629042F1
:1018C0000ED002F5806290420CD002F58062904208
:1018D0000AD002F5806290423FF461AF072261E7CF
:1018E00001225FE702225DE703225BE702B070BDE1
:1018F000704700BF00380140003C01400038024002
:10190000000002400AB1816170470904816170479B
:10191000436901EA030221EA030141EA02418161CC
:101920007047000008B5054B5B69034200D108BD54
:10193000024B5861FFF7F4F9F9E700BF003C0140A2
:10194000074AD36823F4E0631B041B0C000200F475
:10195000E060034343F0BF6343F40033D360704758
:1019600000ED00E000B5194BDB68C3F30223C3F1BF
:10197000070CBCF1040F28BF4FF0040C03F1040E58
:10198000BEF1060F18D9033B4FF0FF3E0EFA0CFCD8
:1019900021EA0C0199400EFA03F322EA03031943EA
:1019A00000280BDB0901C9B200F1604000F561407D
:1019B00080F800135DF804FB0023E5E700F00F005A
:1019C0000901C9B2024B1954F4E700BF00ED00E071
:1019D00014ED00E0002807DB00F01F02400901239E
:1019E0009340024A42F82030704700BF00E100E017
:1019F00008B50B4B1A6842F400721A601A6842F478
:101A000080621A601A6842F480721A600320FFF73D
:101A100097FF0F20FFF7F0FAFFF774FA002008BDD8
:101A2000003C0240034A1168034B1B780B441360CF
:101A3000704700BF7001002000000020014B1868B3
:101A4000704700BF700100207047000090F83D30E3
:101A5000DBB2012B2FD1022380F83D300268D3681E
:101A600043F00103D3600368154A934218D0B3F1E1
:101A7000804F15D0A2F57C42934211D002F58062CE
:101A800093420DD002F58062934209D002F59A325A
:101A9000934205D01A6842F001021A600020704794
:101AA0009A6802F00702062A07D01A6842F001027B
:101AB0001A6000207047012070470020704700BF67
:101AC00000000140704770477047704770B504468A
:101AD0000368DE681D6915F0020F10D016F0020FC2
:101AE0000DD06FF002021A610123037703689B692E
:101AF00013F0030F5ED0FFF7E6FF0023237715F006
:101B0000040F12D016F0040F0FD023686FF00402F8
:101B10001A610223237723689B6913F4407F4FD017
:101B20002046FFF7D0FF0023237715F0080F12D0CF
:101B300016F0080F0FD023686FF008021A61042313
:101B400023772368DB6913F0030F40D02046FFF7AB
:101B5000BAFF0023237715F0100F12D016F0100FE4
:101B60000FD023686FF010021A61082323772368CF
:101B7000DB6913F4407F31D02046FFF7A4FF002338
:101B8000237715F0010F02D016F0010F2DD115F0BB
:101B9000800F02D016F0800F2FD115F0400F02D029
:101BA00016F0400F31D115F0200F02D016F0200FA3
:101BB00033D170BDFFF786FF2046FFF785FF9CE716
:101BC0002046FFF77FFF2046FFF77EFFABE720466A
:101BD000FFF778FF2046FFF777FFBAE72046FFF7C9
:101BE00071FF2046FFF770FFC9E723686FF001021D
:101BF0001A612046FFF788F8C9E723686FF0800272
:101C00001A61204600F095F8C7E723686FF040029C
:101C10001A612046FFF759FFC5E723686FF02002DD
:101C20001A61204600F084F8C3E700000368294ADF
:101C300090420ED0B0F1804F0BD0A2F57C42904282
:101C400007D002F58062904203D002F58062904294
:101C500003D123F070034A6813431E4A90421AD0FE
:101C6000B0F1804F17D0A2F57C42904213D002F51C
:101C7000806290420FD002F5806290420BD002F554
:101C80009A32904207D002F58062904203D002F56A
:101C90008062904203D123F44073CA68134323F057
:101CA00080034A69134303608B68C3620B688362D5
:101CB000084B98420AD001234361036913F0010FD6
:101CC00003D0036923F00103036170470B690363C9
:101CD000F1E700BF0000014040B310B5044690F8A2
:101CE0003D30F3B1022384F83D30214651F8040B16
:101CF000FFF79CFF012384F8463084F83E3084F8D7
:101D00003F3084F8403084F8413084F8423084F821
:101D1000433084F8443084F8453084F83D30002066
:101D200010BD80F83C30FFF78FFEDBE701207047E5
:101D300070477047026802F10C0353E8003F23F438
:101D400090730C3242E800310029F3D1026802F1AD
:101D5000140353E8003F23F00103143242E800313A
:101D60000029F3D1036B012B05D0202380F84230EA
:101D7000002303637047026802F10C0353E8003F3D
:101D800023F010030C3242E800310029F3D1ECE7D4
:101D900038B504460268136923F44053C1680B4305
:101DA000136183680269134342691343C2691A438A
:101DB0000168CB6823F4164323F00C031343CB6074
:101DC0000268536923F4407381690B4353610368CC
:101DD000314A934206D002F58062934202D0FFF767
:101DE00073FC01E0FFF780FCE369B3F5004F29D0F5
:101DF0000021031849411B1841F10001C90041EAC3
:101E00005371DB00181863684FEA83024FEA93733B
:101E100041F10001FEF73AFD204DA5FB00325109CA
:101E2000642303FB11031B013233A5FB03235B096E
:101E300003F0F00202EB011203F00F0321681344D8
:101E40008B6038BD0023021843EB0301121841F1E7
:101E50000001C90041EA5271D200101841F100019D
:101E6000626892185B41FEF711FD0C4DA5FB003234
:101E70005109642303FB1103DB003233A5FB032369
:101E80005B095A0002F4F87202EB011203F0070337
:101E9000216813448B60D4E7001001401F85EB518B
:101EA0002DE9F04383B005460E4617469946DDF806
:101EB00028802C68246836EA04030CBF4FF0010C1C
:101EC0004FF0000CBC4528D1B8F1FF3FF1D0FFF72F
:101ED000B5FDA0EB0900404523D8B8F1000F22D092
:101EE0002B68DA6812F0040FE3D0802EE1D0402E88
:101EF000DFD01A6812F0080FDBD0002401941A68B2
:101F000001925B680193019B2846FFF713FF0823AA
:101F10006B6485F84040012000E0002003B0BDE87C
:101F2000F0830320FAE70320F8E760B310B5044616
:101F300090F8413013B3242384F841302268D368E9
:101F400023F40053D3602046FFF722FF2268136971
:101F500023F4904313612268536923F02A035361E9
:101F60002268D36843F40053D360002060642023C8
:101F700084F8413084F84230606310BD80F840300E
:101F8000FFF702F8D7E7012070472DE9F04182B052
:101F90001E4690F84130DBB2202B56D104460D4648
:101FA0009046002955D00AB901204FE00023436430
:101FB000212380F84130FFF741FD0746A4F8248033
:101FC000A4F82680A368B3F5805F02D04FF0000824
:101FD00014E023692BB34FF000080FE0202384F8AE
:101FE0004130032032E038F8023B2268C3F3080393
:101FF0005360E28C92B2013A92B2E284E38C9BB2DB
:1020000093B100963B46002280212046FFF748FF0F
:102010000028E3D1002DE6D015F8012B23685A6083
:10202000E7E7A8460025E9E700963B460022402165
:102030002046FFF735FF18B9202384F8413005E02A
:10204000202384F84130032000E0022002B0BDE8E4
:10205000F0810120FAE70000034AD2F8883043F407
:102060007003C2F88830704700ED00E000F108030B
:1020700043604FF0FF328260C3600361002303605E
:10208000704700230361704743684B609A688A6019
:10209000516099600861036801330360704730B490
:1020A0000D68B5F1FF3F11D000F108031C465B68D5
:1020B0001A68AA42FAD963684B6099608C606160C3
:1020C000086103680133036030BC70470469F2E7BC
:1020D0000369416882688A60416851605A68824237
:1020E00006D0002202611A68013A1A601868704727
:1020F00082685A60F5E710B5044601F0B3FCA26BA4
:10210000E36B9A4204D0002401F0CEFC204610BDBF
:102110000124F9E710B5044601F0A4FCA36B23B930
:10212000012401F0C1FC204610BD0024F9E770B580
:1021300004461546866B026C5AB903681BB1002031
:102140000136A66370BD806800F0D4FF0023A36051
:10215000F6E76DB9406802F0A1F9226C6368134498
:102160006360A268934219D3236863602846E7E757
:10217000C06802F093F9226C5142E3689B1AE36055
:102180002268934202D2A3680B44E360022D01D07F
:102190000020D5E726B1013E0020D1E72846CFE751
:1021A0000020CDE70346026C6AB110B50846D96835
:1021B0001144D9609C68A14201D31968D960D968DB
:1021C00002F06CF910BD704738B5054601F04AFCC5
:1021D00095F8454064B201E0013C64B2002C0ADD90
:1021E0006B6A43B105F1240000F0DAFE0028F3D059
:1021F00000F06AFFF0E7FF2385F8453001F054FC5A
:1022000001F030FC95F8444064B201E0013C64B256
:10221000002C0ADD2B6943B105F1100000F0C0FE6F
:102220000028F3D000F050FFF0E7FF2385F844309A
:1022300001F03AFC38BD38B5E0B10D46044601F076
:1022400011FC2368E26B216C01FB0230A0600020CE
:10225000A0636360013A02FB0133E360FF2384F86B
:10226000443084F84530FDB9236963B901F01CFCA2
:10227000012038BD4FF0500383F31188BFF36F8FF7
:10228000BFF34F8FFEE704F1100000F089FE002835
:10229000ECD04FF0E0234FF08052C3F8042DBFF391
:1022A0004F8FBFF36F8FE1E704F11000FFF7DEFE01
:1022B00004F12400FFF7DAFED8E738B51D46049C88
:1022C0000B4649B92460E063236401212046FFF7EF
:1022D000B2FF84F84C5038BD2260F4E740B94FF0AB
:1022E000500383F31188BFF36F8FBFF34F8FFEE767
:1022F00010B584B01C46844653B192B189B94FF0F1
:10230000500383F31188BFF36F8FBFF34F8FFEE746
:102310004FF0500383F31188BFF36F8FBFF34F8FDC
:10232000FEE76AB150230393039B502B13D04FF069
:10233000500383F31188BFF36F8FBFF34F8FFEE716
:102340000029EFD04FF0500383F31188BFF36F8F54
:10235000BFF34F8FFEE7039B012384F846300094C0
:102360009DF818306046FFF7A8FF204604B010BD66
:10237000F0B585B0019288B10F461D460446B1B153
:10238000022D20D1E36B012B1DD04FF0500383F3BE
:102390001188BFF36F8FBFF34F8FFEE74FF05003ED
:1023A00083F31188BFF36F8FBFF34F8FFEE7036C8A
:1023B000002BE5D04FF0500383F31188BFF36F8FEC
:1023C000BFF34F8FFEE700F085FE064658B9019B2C
:1023D000002B48D04FF0500383F31188BFF36F8F69
:1023E000BFF34F8FFEE700263DE02A4639462046E0
:1023F000FFF79DFE636A7BB948B14FF0E0234FF0D1
:102400008052C3F8042DBFF34F8FBFF36F8F01F0DD
:102410004BFB012005B0F0BD04F1240000F0C0FD2D
:102420000028F4D04FF0E0234FF08052C3F8042D81
:10243000BFF34F8FBFF36F8FE9E701F035FB00204B
:10244000E8E702A800F0F2FD012619E0002384F875
:10245000443021E0002384F8453023E02046FFF794
:10246000B3FE00F07DFC01F0FDFAA26BE36B9A4233
:10247000BBD3022DB9D0019B002BDED0002EE0D0C3
:1024800001F012FB00F0D2FB01F0ECFA94F84420CA
:1024900052B2B2F1FF3FD9D094F8452052B2B2F116
:1024A000FF3FD7D001F000FB01A902A800F0CAFD50
:1024B000D8B92046FFF71FFE0028CFD0019904F1BC
:1024C000100000F039FD2046FFF77EFE00F048FCCA
:1024D0000028C8D14FF0E0234FF08052C3F8042DFC
:1024E000BFF34F8FBFF36F8FBDE72046FFF76CFE42
:1024F00000F036FC00208DE72DE9F84390B10F463F
:1025000016461C460546B1B1022C20D1EB6B012BBF
:102510001DD04FF0500383F31188BFF36F8FBFF3CB
:102520004F8FFEE74FF0500383F31188BFF36F8F97
:10253000BFF34F8FFEE7036C002BE5D04FF0500345
:1025400083F31188BFF36F8FBFF34F8FFEE701F066
:10255000AFFBEFF311894FF0500383F31188BFF302
:102560006F8FBFF34F8FAA6BEB6B9A4206D3022C8F
:1025700004D0002089F31188BDE8F88395F84580E0
:102580004FFA88F8AB6B224639462846FFF7CFFD55
:10259000B8F1FF3F06D008F101035BB285F8453082
:1025A0000120E7E76B6A0BB90120E3E705F124009E
:1025B00000F0F6FC18B126B101203060DAE7012006
:1025C000D8E70120D6E7F0B585B0019290B10F466B
:1025D0000446C1B100F07EFD064600BB019B002B06
:1025E0005ED04FF0500383F31188BFF36F8FBFF3BA
:1025F0004F8FFEE74FF0500383F31188BFF36F8FC7
:10260000BFF34F8FFEE7036C002BE3D04FF0500376
:1026100083F31188BFF36F8FBFF34F8FFEE7002660
:102620003EE039462046FFF7BDFD013DA563236925
:1026300023B901F039FA012005B0F0BD04F1100012
:1026400000F0AEFC0028F4D04FF0E0234FF08052B1
:10265000C3F8042DBFF34F8FBFF36F8FE9E701F08D
:1026600023FA0020E8E702A800F0E0FC012621E0C0
:10267000002384F8443029E0002384F845302BE01F
:102680002046FFF7A1FD00F06BFB09E02046FFF7B5
:102690009BFD00F065FB2046FFF73CFD00283FD185
:1026A00001F0E0F9A56B002DBBD1019B002BD6D02A
:1026B000002ED8D001F0F8F900F0B8FA01F0D2F904
:1026C00094F844305BB2B3F1FF3FD1D094F8453079
:1026D0005BB2B3F1FF3FCFD001F0E6F901A902A848
:1026E00000F0B0FC0028D1D12046FFF713FD0028F0
:1026F000C6D0019904F1240000F01EFC2046FFF72B
:1027000063FD00F02DFB0028CAD14FF0E0234FF00D
:102710008052C3F8042DBFF34F8FBFF36F8FBFE715
:10272000002089E70023072B0CD8074A52F83320F2
:102730000AB10133F7E7044A42F8331002EBC3034E
:1027400058607047704700BF7401002070B50446A0
:102750000D46164601F086F994F844305BB2B3F1A9
:10276000FF3F0DD094F845305BB2B3F1FF3F0BD083
:1027700001F09AF9A36B5BB12046FFF725FD70BD10
:10278000002384F84430EDE7002384F84530EFE778
:102790003246294604F1240000F0E6FBECE7000095
:1027A000084B1B681B6823B9074B4FF0FF321A60B8
:1027B0007047044B1B68DB68DB685A68024B1A6081
:1027C000704700BFB8010020600600202DE9F047E7
:1027D00080460D4617469946089EDDF824A00A9CBF
:1027E0009200A521206B01F067FE236B07F1804268
:1027F000013A03EB820727F00707B5B34FF0000C4F
:10280000BCF10F0F0BD815F80C2004EB0C0383F868
:10281000342015F80C3013B10CF1010CF0E7002353
:1028200084F84330372E00D93726E662E664002567
:102830002565201DFFF725FC04F11800FFF721FC9A
:102840002461C6F13806A6616462656584F8585053
:102850004A464146384601F0DBF82060BAF1000FE5
:1028600001D0CAF80040BDE8F087002384F8343076
:10287000D8E7000038B5002407E004EB8402930099
:102880000E481844FFF7F2FB0134372CF5D90C4DF4
:102890002846FFF7EBFB0B4C2046FFF7E7FB0A4807
:1028A000FFF7E4FB0948FFF7E1FB0948FFF7DEFB10
:1028B000084B1D60084B1C6038BD00BFC0010020E4
:1028C00034060020480600206C06002098060020F0
:1028D00084060020B8010020BC01002010B5044689
:1028E00001F0C0F8224A136801331360214B1B68C2
:1028F0005BB1214B1B686BB91E4B1B68DA6AE36A3C
:102900009A4207D81B4B1C6004E01A4B1C601368EA
:10291000012B29D0194A1368013313606364E06AFC
:10292000174B1B68984201D9154B186000EB8000CB
:10293000211D144B03EB8000FFF7A6FB01F0B4F858
:102940000D4B1B687BB10B4B1B68DA6AE36A9A423A
:1029500009D24FF0E0234FF08052C3F8042DBFF3AB
:102960004F8FBFF36F8F10BDFFF784FFD2E700BF1B
:1029700020060020B4010020800600202C06002044
:1029800030060020C001002010B5044690F85930F0
:1029900063B1012B11D0022B0ED04FF0500383F303
:1029A0001188BFF36F8FBFF34F8FFEE7006B00F00E
:1029B000B3FF204600F0B0FF10BD00F0ADFFFBE715
:1029C0000F4B1B68D3B110B501F04CF80D4BDB6811
:1029D000DC68201DFFF77CFB0B4A1368013B13608A
:1029E000074A1368013B136001F05EF82046FFF7C9
:1029F000CBFF034B1B68002BE6D110BD704700BF17
:102A000024060020980600202006002008B5FFF7C5
:102A1000D7FF074B1B68012BF9D94FF0E0234FF08C
:102A20008052C3F8042DBFF34F8FBFF36F8FEEE7D3
:102A3000C001002070B504460D46174B1E68174BA9
:102A400018680430FFF744FBB4F1FF3F0DD0344465
:102A5000124B1B685C60A64210D9114B18680F4BD3
:102A600019680431FFF71BFB70BD002DEFD00B4B35
:102A7000196804310B48FFF707FBF5E70A4B1868A4
:102A8000064B19680431FFF70AFB084B1B68A34289
:102A9000EAD9064B1C60E7E7AC060020B401002031
:102AA000BC01002084060020B80100206006002040
:102AB00030B587B00B9C7CB10C9DB5B15C250495FD
:102AC000049D5C2D1AD04FF0500383F31188BFF39F
:102AD0006F8FBFF34F8FFEE74FF0500383F31188E2
:102AE000BFF36F8FBFF34F8FFEE74FF0500383F3B9
:102AF0001188BFF36F8FBFF34F8FFEE7049D0C9DCE
:102B00002C63022485F8594000240394029505ACF7
:102B100001940A9C0094FFF759FE0C98FFF7DEFE23
:102B2000059807B030BD2DE9F04385B007468846CB
:102B300014461E46900000F071FE00B381465C20F2
:102B400000F06CFE0546B0B1C0F83090E5B100234E
:102B500085F85930039302950D9B01930C9B0093CC
:102B60003346224641463846FFF730FE2846FFF7F7
:102B7000B5FE012005E0484600F0CEFEE6E74FF046
:102B8000FF3005B0BDE8F0834FF0FF30F9E70000FB
:102B900010B588B000240594069407AA06A905A8D4
:102BA00000F0C0FD059B0293069B01930094234611
:102BB000079A18491848FFF77BFF184B186040B177
:102BC00000F04CFB012806D0B0F1FF3F18D008B050
:102BD00010BD0020F6E74FF0500383F31188BFF3D8
:102BE0006F8FBFF34F8F0E4B4FF0FF321A600D4BBC
:102BF00001221A600C4B00221A6000F0CDFFE6E7BC
:102C00004FF0500383F31188BFF36F8FBFF34F8FE3
:102C1000FEE700BFB45500080D2A00085C0600203E
:102C20006006002080060020AC060020024A1368DF
:102C300001331360704700BF28060020014B18685D
:102C4000704700BFAC060020F8B53A4B1B68002B5C
:102C500069D1394B1D6801351D60C5B9374B1B68FB
:102C60001B6843B14FF0500383F31188BFF36F8F9C
:102C7000BFF34F8FFEE7314A1168314B186810607F
:102C80001960304A136801331360FFF789FD2E4B3A
:102C90001B68AB423DD900272C4B1B68DB6A03EB5A
:102CA00083039A002A4B9B58012B00D90127294BFB
:102CB0001B68002B3CD001273AE001271F4B1B6803
:102CC0001B6843B31D4B1B68DB68DC6863689D426F
:102CD00026D3261D3046FFF7FBF9A36A1BB104F18A
:102CE0001800FFF7F5F9E36A1B4A1268934201D90D
:102CF000194A136003EB83039A00314614481044C9
:102D0000FFF7C2F9E26A114B1B68DB6A9A42D4D220
:102D1000D4E70027D2E70C4B4FF0FF321A60BBE735
:102D2000094A1360B8E70D4A13680133136000279E
:102D30003846F8BD28060020AC060020B801002067
:102D4000BC0100206406002060060020B4010020C1
:102D5000C0010020B00600203006002068060020D8
:102D600038B5354B1B6843B94FF0500383F31188D6
:102D7000BFF36F8FBFF34F8FFEE700F073FE2E4B54
:102D80001A68013A1A601B68002B4FD12B4B1B6845
:102D90000BB900244BE00024294B1B681BB3284BC4
:102DA000DB68DC6804F11800FFF792F9251D28465E
:102DB000FFF78EF9E06A234B1B68984201D9214B3B
:102DC000186000EB800029461F4B03EB8000FFF7E3
:102DD0005BF9E26A1D4B1B68DB6A9A42DCD31C4B31
:102DE00001221A60D8E70CB1FFF7DAFC194B1C6816
:102DF00084B9174B1C68D4B14FF0E0234FF08052D8
:102E0000C3F8042DBFF34F8FBFF36F8F01240EE083
:102E1000013C07D0FFF718FF0028F9D00C4B012226
:102E20001A60F5E70B4B00221A60E2E7002400F07D
:102E30003BFE204638BD00BF2806002020060020AB
:102E40006C06002030060020C0010020B4010020E4
:102E5000B00600206806002010B5A8B10446104B4B
:102E60001B6843B14FF0500383F31188BFF36F8F9A
:102E7000BFF34F8FFEE7FFF7D9FE00212046FFF793
:102E8000D9FDFFF76DFF48B94FF0E0234FF08052B6
:102E9000C3F8042DBFF34F8FBFF36F8F10BD00BF7A
:102EA000280600201F4B1B681BB11F4B01221A6014
:102EB00070471D4B00221A601C4B1B6803EB8301FB
:102EC0008A001B498A585AB90BB1013BF6E74FF00B
:102ED000500383F31188BFF36F8FBFF34F8FFEE76B
:102EE00003EB830082000A4450684068506003EBA3
:102EF000830C4FEA8C020832114488420BD003EB5A
:102F0000830291000A4A0A445268D168094A116052
:102F1000064A13607047406862469100044A0A44BA
:102F20005060ECE728060020B006002030060020A4
:102F3000C0010020B401002058B110B50C46094A68
:102F400011681831FFF7ABF801212046FFF772FD39
:102F500010BD4FF0500383F31188BFF36F8FBFF3A1
:102F60004F8FFEE7B401002038B570B10D4614460E
:102F70000A4A11681831FFF787F80CB14FF0FF3596
:102F800021462846FFF756FD38BD4FF0500383F326
:102F90001188BFF36F8FBFF34F8FFEE7B40100209E
:102FA00038B5C368DC6824B304F118052846FFF778
:102FB0008FF8184B1B682BBB251D2846FFF788F898
:102FC000E06A154B1B68984201D9134B186000EB5F
:102FD00080002946114B03EB8000FFF755F8E26AA9
:102FE0000F4B1B68DB6A9A4211D901200D4B186008
:102FF00038BD4FF0500383F31188BFF36F8FBFF3D9
:103000004F8FFEE729460848FFF73EF8E7E7002024
:10301000EEE700BF2806002030060020C001002097
:10302000B4010020B00600206C060020034B1B6892
:103030000360034B1B684360704700BF64060020B9
:10304000AC060020F8B5C8B10C460546F9B100F051
:1030500009FD1B4B19686B68C81A2268B2F1FF3F63
:1030600026D0184E36682F68B74201D08B4224D93B
:10307000824215D80023236001241AE04FF0500348
:1030800083F31188BFF36F8FBFF34F8FFEE74FF0CD
:10309000500383F31188BFF36F8FBFF34F8FFEE7A9
:1030A0005B1A134423602846FFF7C0FF002400E0AA
:1030B000002400F0F9FC2046F8BD0124F9E700BF28
:1030C000AC06002064060020014B01221A60704704
:1030D000B0060020054B1B6833B1054B1B680BB1D4
:1030E00000207047022070470120704780060020B2
:1030F0002806002000283BD038B504461E4B1B682C
:10310000834208D04FF0500383F31188BFF36F8FD1
:10311000BFF34F8FFEE7036D43B94FF0500383F3C6
:103120001188BFF36F8FBFF34F8FFEE7013B03653D
:10313000C16AC26C91421DD00BB1002038BD051D83
:103140002846FEF7C5FFE06CE062C0F13803A361DA
:103150000A4B1B68984201D9084B186000EB8000AD
:103160002946074B03EB8000FEF78EFF0120E5E7C1
:10317000002070470020E1E7B40100203006002065
:10318000C0010020064B1A6813682BB901230360A5
:1031900023B9D368186870470023F8E70020704708
:1031A000B406002008B54160006191420CD8D21AE3
:1031B00083699A4201D3012008BD011D094B18689B
:1031C000FEF76DFF0020F7E79A4201D2994206D23E
:1031D000011D054B1868FEF762FF0020ECE7012097
:1031E000EAE700BFB8060020B406002030B583B07F
:1031F00000F038FC114B1B681BB100F055FC03B00C
:1032000030BD0F4D2846FEF731FF0E4C2046FEF72D
:103210002DFF0D4B1D600D4B1C60002300930C4BCC
:103220000C4A10210A20FFF759F8044B18600028B7
:10323000E3D00949FFF776FADFE700BFD80700209F
:103240005C07002070070020B4060020B8060020AC
:1032500088070020BC060020BC55000810B588B0C7
:10326000FFF7C4FF124B1B68CBB1002405940694F2
:1032700007AA06A905A800F061FA059B0293069B20
:103280000193022300932346079A0A490A48FFF74D
:103290000FFC0A4B186010B1012008B010BD4FF0B0
:1032A000500383F31188BFF36F8FBFF34F8FFEE797
:1032B000D8070020C4550008C1350008DC070020ED
:1032C000B8B19C4603461848006858B300B585B0AD
:1032D00000910192029305291CDCFFF7FBFE0228F6
:1032E00010D000231A4669460F480068FFF740F8DF
:1032F00015E04FF0500383F31188BFF36F8FBFF3D6
:103300004F8FFEE70023069A694607480068FFF7DB
:103310002FF804E0002362466946FFF7EDF805B098
:103320005DF804FB00207047D807002070B582B01C
:103330001B4B1B681A6862B3DB681E68DC68251DBE
:103340002846FEF7C5FE236A2046984794F82830A1
:1033500013F0040FECD0A36933449E4207D263609C
:10336000246129460E4B1868FEF799FEE0E700211C
:1033700000910B4632462046FFF7A2FF0028D7D126
:103380004FF0500383F31188BFF36F8FBFF34F8F5C
:10339000FEE7044A106802490860136002B070BD7D
:1033A000B4060020B806002038B50546FFF746FCF5
:1033B0000446074B1B68834205D800232B60044B4F
:1033C0001C60204638BDFFF7B1FF01232B60F6E7F4
:1033D0008407002070B582B006460D46174909687B
:1033E000C968CC68201DFEF773FE94F828C01CF055
:1033F000040F08D12CF0010C84F828C0236A204661
:10340000984702B070BDA16933462A463144204630
:10341000FFF7C8FE0028F1D0002100910B4632468C
:103420002046FFF74DFF0028E8D14FF0500383F30B
:103430001188BFF36F8FBFF34F8FFEE7B4060020F4
:1034400070B582B006460C46FFF7F0FB01A8FFF707
:10345000ABFF019B33BB05460CB9B04219D224B176
:10346000124A12681268DAB901242246711B104B05
:103470001868FFF76BF9FFF773FCA8B94FF0E0236A
:103480004FF08052C3F8042DBFF34F8FBFF36F8FFF
:103490000AE0FFF765FC29463046FFF79BFF03E093
:1034A0001C46E2E7FFF75CFC02B070BDB8060020E6
:1034B000D807002010B588B002E0049B002B0FDA7B
:1034C000002204A93D4B1868FFF77DF8002873D04F
:1034D000049B002BF1DA07990698059B9847ECE7C7
:1034E000069C636913B1201DFEF7F2FD03A8FFF7E8
:1034F0005BFF049B092BE3D8DFE803F005050530EB
:1035000037500505303794F8283043F0010384F82C
:103510002830059BA169024619442046FFF742FE68
:103520000028CDD0236A2046984794F8283013F01D
:10353000040FC5D0A269002100910B4605980244F2
:103540002046FFF7BDFE0028BAD14FF0500383F3A9
:103550001188BFF36F8FBFF34F8FFEE794F82830C9
:1035600023F0010384F82830AAE794F8283043F0C8
:10357000010384F828300599A16131B10346024660
:1035800001442046FFF70EFE9AE74FF0500383F305
:103590001188BFF36F8FBFF34F8FFEE794F8283089
:1035A00013F0020F04D023F0010384F8283087E7DA
:1035B000204600F0B1F983E708B010BDD80700201D
:1035C00000B583B001A8FFF7DDFD0199FFF738FFD3
:1035D000FFF770FFF6E708B54FF0E0231B69FFF730
:1035E00079FD012800D108BD00F0ACFAFBE700002E
:1035F000EFF305832BB9064B186828B901221A602E
:1036000070476FF0050070474FF0FF30704700BF04
:103610003C0A0020EFF3058373B90A4B1B68012BAA
:103620000DD110B50024084BDC77064B02221A603E
:10363000FFF7AEFA204610BD6FF0050070474FF05F
:10364000FF3070473C0A002000ED00E0F0B587B085
:1036500000240594EFF3058474BB68B322B31568A6
:10366000936903B918235C1E372C49D8546814F0A9
:10367000010F47D156696EB14FEA960C94682CB190
:10368000D7685B2F02D9176907B1C6B92CB14FF0C3
:10369000FF340EE04FF0800CF0E7D4688CB9146969
:1036A00094B14FF0FF3404E01546002418234FF086
:1036B000800C012C0AD0ACB1059807B0F0BD0124F4
:1036C000F7E74FF0FF34F4E70024F2E7146992685B
:1036D0000292019400930B4662462946FFF7E8F9EF
:1036E0000590E9E705AA019200930B461FFA8CF2B8
:1036F0002946FFF718FA0128DED000230593DBE7FF
:103700000020DAE70020D8E708B5EFF3058333B9E6
:1037100008B9002008BDFFF79FFB0020FAE76FF013
:103720000500F7E7034B0360034B0B608023136036
:10373000704700BFE0090020E0070020034B036052
:10374000034B0B604FF4807313607047400E0020F2
:10375000400A0020124A12F0070F1ED0D11D21F09E
:103760000701C1F5705313440A460E480260002158
:1037700041601344083B23F007030B480360596082
:103780001960991A51601360084B1960084B196051
:10379000084B4FF000421A6070474FF47053E4E753
:1037A000A00E0020B44A00209C0E0020A84A002051
:1037B000A44A0020A04A0020164B1A461B688342E8
:1037C000FBD3516802EB010C844509D0416800EB42
:1037D000010C634509D00360904219D01060704716
:1037E0004068014451601046F0E710B40A4C246868
:1037F000A3420BD05B681944416013681B680360E7
:10380000904200D010605DF8044B70470460F7E709
:10381000704700BFB44A00209C0E002070B50546DA
:10382000FFF704FA364B1B68A3B1364B1B681D42E9
:103830004ED135B1083515F0070F02D025F0070538
:103840000835002D46D0304B1B68AB4251D32F4A70
:10385000146804E0FFF77EFFE7E722461C46636832
:10386000AB4202D22368002BF7D1254B1B68A34241
:1038700041D0166808362368136063685B1B102B01
:1038800010D9601910F0070F08D04FF0500383F3E0
:103890001188BFF36F8FBFF34F8FFEE74360656002
:1038A000FFF78AFF626818490B689B1A0B6018497A
:1038B00009688B4201D216490B60124B1B681343F7
:1038C000636000232360134A13680133136002E02E
:1038D000002600E00026FFF743FA16F0070F0CD091
:1038E0004FF0500383F31188BFF36F8FBFF34F8FF7
:1038F000FEE70026EFE70026EDE7304670BD00BF8B
:103900009C0E0020A04A0020A44A0020B44A0020B7
:10391000A84A0020AC4A0020002834D038B504461C
:10392000A0F1080550F8043C174A1268134208D168
:103930004FF0500383F31188BFF36F8FBFF34F8FA6
:10394000FEE750F8081C41B14FF0500383F3118893
:10395000BFF36F8FBFF34F8FFEE723EA020340F8F8
:10396000043CFFF763F954F8041C084A13680B443D
:1039700013602846FFF720FF054A136801331360E0
:10398000FFF7EEF938BD7047A04A0020A44A002096
:10399000B04A002082B0002301930D4B1B68B3F1A5
:1039A000FF3F08D04FF0500383F31188BFF36F8FB0
:1039B000BFF34F8FFEE74FF0500383F31188BFF33F
:1039C0006F8FBFF34F8F019B002BFCD002B070476D
:1039D0000C00002008480068006880F308884FF059
:1039E000000080F3148862B661B6BFF34F8FBFF357
:1039F0006F8F00DF00BF000008ED00E0DFF80C0073
:103A0000016841F4700101607047000088ED00E03A
:103A10004FF0807340F8043C21F0010140F8081C8D
:103A2000054B40F80C3C40F8202C6FF0020340F8A6
:103A3000243C4438704700BF95390008000000005E
:103A4000074B19680868B0E8F04F80F30988BFF3A6
:103A50006F8F4FF0000080F311887047AFF3008044
:103A6000B40100204FF0500383F31188BFF36F8F30
:103A7000BFF34F8F0B4A136801331360012B00D043
:103A800070474FF0E023D3F8043D13F0FF0FF7D059
:103A90004FF0500383F31188BFF36F8FBFF34F8F45
:103AA000FEE700BF0C000020094B1B6843B94FF034
:103AB000500383F31188BFF36F8FBFF34F8FFEE77F
:103AC000013B034A13600BB983F31188704700BFB1
:103AD0000C000020000000000000000000000000BA
:103AE000EFF30980BFF36F8F154B1A681EF0100FAC
:103AF00008BF20ED108A20E9F04F10602DE9090081
:103B00004FF0500080F31188BFF34F8FBFF36F8FDA
:103B1000FFF7C8F94FF0000080F3118809BC19685D
:103B20000868B0E8F04F1EF0100F08BFB0EC108A24
:103B300080F30988BFF36F8F704700BFAFF3008039
:103B4000B401002008B54FF0500383F31188BFF390
:103B50006F8FBFF34F8FFFF777F828B14FF0E02357
:103B60004FF08052C3F8042D002383F3118808BD61
:103B70004FF0E022002313619361054B1B68054958
:103B8000A1FB03139B09013B53610723136170479A
:103B900008000020D34D62104FF0E023D3F8002D31
:103BA0003D4B9A421CD04FF0E023D3F8002D3B4B05
:103BB0009A421ED030B583B0394B1A78D2B20192F6
:103BC000FF221A701B78DBB28DF803309DF80330AA
:103BD00003F05003334A1370334B07221A601BE083
:103BE0004FF0500383F31188BFF36F8FBFF34F8FF4
:103BF000FEE74FF0500383F31188BFF36F8FBFF3DD
:103C00004F8FFEE7284A1368013B13609DF803308D
:103C10005B00DBB28DF803309DF8033013F0800FAA
:103C2000F0D1214B1B68032B08D04FF0500383F3D6
:103C30001188BFF36F8FBFF34F8FFEE71B021A4A45
:103C4000136003F4E0631360019BDBB2144A13704A
:103C50004FF0E024D4F8203D43F47003C4F8203D35
:103C6000D4F8203D43F07043C4F8203DFFF780FFB7
:103C700000250E4B1D60FFF7C1FED4F8343F43F022
:103C80004043C4F8343FFFF7A5FEFFF70BF9FFF7F9
:103C900081FE284603B030BD71C20F4170C20F4192
:103CA00000E400E0BC4A0020C04A00200C000020D4
:103CB000EFF305830F2B0FD9114A9B5CDBB2114A3E
:103CC00012789A4208D94FF0500383F31188BFF35A
:103CD0006F8FBFF34F8FFEE74FF0E023D3F80C3D1B
:103CE00003F4E063084A1268934208D94FF0500386
:103CF00083F31188BFF36F8FBFF34F8FFEE77047D9
:103D0000F0E300E0BC4A0020C04A002010B50346A2
:103D10000C4A0D490D48006840B10C480068034446
:103D2000521A934206D8094A136010BD0748084C3E
:103D30000460F2E700F088FB0C2303604FF0FF30D3
:103D4000F3E700BF0000022000040000C44A002086
:103D5000D84A002070B50C461646002506E0AFF3A1
:103D60000080214601F8010B01350C46B542F6DB17
:103D7000304670BD70B50C461646002504E014F8B8
:103D8000010BFCF7B1FF0135B542F8DB304670BDE1
:103D90004FF0FF3070474FF400534B6000207047E6
:103DA00001207047002070474A4B5A6822F4403285
:103DB0005A605A6841680A435A600268536823F49B
:103DC0008073536002685368016943EA01235360BA
:103DD0000268536823F04073536002685368816837
:103DE0000B4353600268936823F400639360026896
:103DF0009368C1680B439360826A374B9A4257D0ED
:103E00000268936823F07063936002689368816A24
:103E10000B4393600268936823F0405393600268F9
:103E20009368C16A0B4393600268936823F00203AE
:103E3000936002689368017E43EA4103936090F8BF
:103E40002030002B3FD00268536843F40063536076
:103E50000268536823F46043536001684B68426A08
:103E6000013A43EA42334B600268D36A23F4700399
:103E7000D3620168CB6AC269013A43EA0253CB625A
:103E80000268936823F4007393600268936890F863
:103E9000301043EA412393600268936823F48063FF
:103EA000936002689368416943EA81239360704795
:103EB0000268936823F0706393600268936823F04C
:103EC00040539360B0E70268536823F40063536083
:103ED000CAE700BF002301400100000F38B310B54E
:103EE0000446036C43B1236C13F0100F0BD0012078
:103EF000002384F83C3010BDFDF726F800236364EE
:103F000084F83C30EFE7236C23F4885323F002035A
:103F100043F0020323642046FFF746FF002060645D
:103F2000236C23F0030343F001032364E0E7012043
:103F30007047000082B00023019390F83C30012BC1
:103F40006ED0012380F83C3003689A6812F0010FAC
:103F500013D19A6842F001029A60344B1B68344ACC
:103F6000A2FB03239B0C03EB4303019302E0019BA1
:103F7000013B0193019B002BF9D10268936813F078
:103F8000010F42D0036C23F4E06323F0010343F4F8
:103F900080730364536813F4806F05D0036C23F4BB
:103FA000405343F480530364036C13F4805F19D0CF
:103FB000436C23F006034364002380F83C306FF029
:103FC000220313601B4B5B6813F01F0F0DD10368B6
:103FD0009A6812F0405F25D19A6842F080429A6058
:103FE00000201BE000234364E6E70368124A934283
:103FF00001D0002012E09A6812F0405F14D19A6854
:1040000042F080429A60002008E0036C43F0100305
:104010000364436C43F001034364002002B0704723
:104020000220FBE70020F9E70020F7E70800002066
:1040300083DE1B43002301400020014070B504468D
:104040000D4603689A6812F4806F03D09B6813F4DE
:10405000807F19D1FDF7F2FC064623681A6812F03A
:10406000020F20D1B5F1FF3FF7D0B5B923681B6827
:1040700013F0020FF1D1236C43F0040323640023F7
:1040800084F83C30032032E0036C43F020030364E7
:10409000002380F83C30012029E0FDF7CFFC801B95
:1040A000A842DAD9E2E76FF012021A60236C43F4F7
:1040B0000073236423689A6812F0405F16D1207E53
:1040C000B0B9DA6A12F4700F03D09B6813F4806FF2
:1040D0000DD1236C23F480732364236C13F4805F6D
:1040E00005D1236C43F00103236400E0002070BD80
:1040F0000020FCE70368D86C704770477047704732
:1041000070B5044603681E685D6816F0020F2FD074
:1041100005F0200262B3026C12F0100F03D1026CA2
:1041200042F4007202649A6812F0405F19D1227E54
:10413000BAB9DA6A12F4700F03D09A6812F4806F79
:104140000FD15A6822F020025A60236C23F4807346
:104150002364236C13F4805F03D1236C43F00103C9
:1041600023642046FFF7C9FF23686FF012021A602C
:1041700005F0800316F0040F37D0002B35D0236CE8
:1041800013F0100F03D1236C43F40053236423680E
:104190009A6812F4401F21D19A6B12F4401F03D089
:1041A0009A6812F4806F19D15A6812F4806F15D191
:1041B0009A6812F0405F11D1227E7AB95A6822F0D3
:1041C00080025A60236C23F480532364236C13F41D
:1041D000807F03D1236C43F001032364204600F069
:1041E00007F923686FF00C021A6005F0400316F01F
:1041F000010F05D023B123681B6813F0010F06D10E
:1042000005F0806516F0200F00D065B970BD236CF5
:1042100043F4803323642046FFF770FF23686FF078
:1042200001021A60ECE7636C43F0020363642368E5
:104230006FF020051D602046FFF761FF23681D60B9
:10424000E4E7000030B482B00023019390F83C30E2
:10425000012B00F0C080012380F83C300B68092B53
:1042600041D90468E2689BB203EB43031E3B4FF065
:10427000070C0CFA03F322EA0303E3600468E26824
:104280000B8803EB43031E3B8D6805FA03F31343CE
:10429000E3604B68062B3DD80468626B03EB830335
:1042A000053B4FF01F0C0CFA03F322EA0303636390
:1042B0000468626B4B6803EB8303053BB1F800C0F5
:1042C0000CFA03F3134363630268444B9A4251D0E0
:1042D0000268424B9A425AD0002380F83C3018467C
:1042E00002B030BC7047046822699BB203EB430301
:1042F0004FF0070C0CFA03F322EA0303236104686E
:1043000022690B8803EB43038D6805FA03F313431B
:104310002361BEE70C2B16D805682A6B03EB8303D9
:10432000233B1F2404FA03F322EA03032B630568EB
:104330002A6B4B6803EB8303233B0C8804FA03F3DB
:1043400013432B63C0E70568EA6A03EB8303413B31
:104350001F2404FA03F322EA0303EB620568EA6A06
:104360004B6803EB8303413B0C8804FA03F31343CC
:10437000EB62A9E70B68122BAAD1194B5A6822F4F9
:1043800000025A605A6842F480025A60A0E70B6843
:10439000144A934201D0112B9ED1114B5A6822F43A
:1043A00080025A605A6842F400025A600A680D4B53
:1043B0009A4291D10C4B1B680C4AA2FB03239B0C25
:1043C00003EB83035B000193019B002B84D0019BD3
:1043D000013B0193F8E7022082E700BF0020014083
:1043E00000230140120000100800002083DE1B4360
:1043F00070470000DFF834D0FDF72EFE0C480D4961
:104400000D4A002302E0D458C4500433C4188C422F
:10441000F9D30A4A0A4C002301E013600432A24295
:10442000FBD300F017F8FCF727FD704700000220CF
:104430000000002074000020745600087400002062
:10444000D84A0020FEE70000014B1868704700BF03
:104450001000002070B50D4D0D4C641BA4100026FB
:10446000A64209D10B4D0C4C01F032F8641BA4108C
:104470000026A64205D170BD55F8043B9847013689
:10448000EEE755F8043B98470136F2E76C56000812
:104490006C5600086C560008705600080A44914299
:1044A00000F1FF3300D1704710B511F8014B03F84C
:1044B000014F9142F9D110BD02440346934200D10D
:1044C000704703F8011BF9E70FB40A4B13B51C68DA
:1044D00024B1A36913B9204600F05EFA05AB049A33
:1044E000A1680193204600F067FC02B0BDE81040CF
:1044F00004B070471000002070B50E46054618B194
:1045000083690BB900F048FAAB69AC6813B9284667
:1045100000F042FA2C4B9C4220D16C68636EDB07A2
:1045200005D4A389980502D4A06D00F0D3FAA3891D
:1045300019071DD52369DBB1013EA36816F8011FD9
:10454000013BA36039BB002B38DA22460A212846FA
:1045500000F048F8013011D00A2511E01B4B9C42B5
:1045600001D1AC68DAE71A4B9C4208BFEC68D5E78A
:104570002146284600F088F80028DDD04FF0FF35AE
:10458000636EDA0705D4A3899B0502D4A06D00F001
:10459000A2FA284670BD002B04DAA2699A4206DC12
:1045A0000A2904D023685A1C22601970C5E72246E4
:1045B000284600F017F80130BFD1DFE723680A254D
:1045C0005A1C22601D70DBE7F055000810560008E9
:1045D000D0550008024B01461868FFF78DBF00BF99
:1045E00010000020F8B50E461446054618B1836940
:1045F0000BB900F0D1F9214B9C422BD16C68A36917
:10460000A360A3891A072FD523696BB32369206898
:10461000C01A6369F6B28342374604DC2146284655
:1046200000F026F930BBA368013BA36023685A1C45
:1046300022601E7063690130834204D0A389DB07C6
:1046400006D50A2E04D12146284600F011F988B972
:104650003846F8BD0A4B9C4201D1AC68CFE7094B04
:104660009C4208BFEC68CAE72146284600F00CF8D7
:104670000028CBD04FF0FF37EAE700BFF055000825
:1046800010560008D0550008324B70B51D6806461C
:104690000C4625B1AB6913B9284600F07DF92E4BC5
:1046A0009C420FD16C68A389B4F90C2019072CD453
:1046B000DD0611D40923336042F04003A3814FF09B
:1046C000FF303EE0254B9C4201D1AC68EBE7244B28
:1046D0009C4208BFEC68E6E7580712D5616B41B110
:1046E00004F14403994202D0304600F05BFA002303
:1046F0006363A38923F02403A381002363602369F8
:104700002360A38943F00803A38123694BB9A389DC
:1047100003F42073B3F5007F03D02146304600F048
:1047200001FAA089B4F90C2010F001030AD000238B
:10473000A36063695B42A361236943B910F0800001
:10474000BAD170BD810758BF6369A360F4E7002048
:10475000F7E700BF10000020F055000810560008D1
:10476000D05500088A892DE9F041054610070C460E
:1047700058D44B68002B05DC0B6C002B02DC0020AE
:10478000BDE8F081E66A002EF9D0002312F48052D1
:104790002F682B6032D0606DA3895A0705D56368F6
:1047A000C01A636B0BB1236CC01A00230246E66A81
:1047B000216A2846B047431CA38906D129681D29D0
:1047C0002CD82A4ACA40D60728D500226260D904CC
:1047D0002269226004D5421C01D12B6803B96065AF
:1047E000616B2F600029CAD004F14403994202D0C2
:1047F000284600F0D7F900206063C1E7216A012351
:104800002846B047411CC7D12B68002BC4D01D2BB4
:1048100001D0162B01D12F60B1E7A38943F04003EB
:10482000A381ADE70F69002FA9D093070E6808BFD9
:104830004B690F6018BF0023A6EB07088B60B8F127
:10484000000F9CDD216AA66A43463A462846B047D7
:10485000002806DCA38943F04003A3814FF0FF301A
:104860008EE70744A8EB0008E9E700BF01004020FD
:1048700038B50B6905460C4613B90025284638BDE6
:1048800018B183690BB900F087F8144B9C421BD117
:104890006C68B4F90C30002BEFD0626ED00704D4F2
:1048A000990502D4A06D00F015F928462146FFF7BE
:1048B00059FF636EDA070546E0D4A3899B05DDD472
:1048C000A06D00F008F9D9E7054B9C4201D1AC6816
:1048D000DFE7044B9C4208BFEC68DAE7F0550008BC
:1048E00010560008D0550008002310B50446C0E952
:1048F0000033C0E90433836081814366C2818361F0
:10490000194608225C30FFF7D7FD054B6362054B63
:10491000A362054BE362054B2462236310BD00BF15
:104920006153000883530008BB530008DF5300089D
:10493000014900F0AFB800BF7148000870B56822A7
:104940004D1E55430E4605F1740100F097F90446DB
:1049500040B10021C0E900160C30A06005F16802EA
:10496000FFF7AAFD204670BD014800F0B3B800BFB4
:10497000C94A0020014800F0AEB800BFC94A002073
:10498000014800F0A7B800BFCA4A0020014800F063
:10499000A2B800BFCA4A002010B50446FFF7F0FFD6
:1049A000A3691BB1BDE81040FFF7F0BFC4E91233A3
:1049B0002365134B134A1B68A262A34204BF012361
:1049C000A361204600F020F86060204600F01CF84B
:1049D000A060204600F018F80022E0600421606822
:1049E000FFF782FFA06801220921FFF77DFFE06841
:1049F00002221221FFF778FF0123A361D2E700BF53
:104A0000CC55000831490008F8B50746FFF7ACFF60
:104A10001E4B1E68B36913B93046FFF7BDFF483619
:104A2000D6E90134013B03D533680BB33668F7E7A9
:104A3000B4F90C50D5B9164BE36004F15800656623
:104A400000F047F8FFF796FFC4E90155C4E90455A3
:104A50002560A5610822294604F15C00FFF72CFDC2
:104A6000C4E90D55C4E912552046F8BD6834D9E7AC
:104A700004213846FFF762FF044630600028D5D194
:104A8000FFF778FF0C233B60EEE700BFCC55000832
:104A90000100FFFF2DE9F8430646884600F148046F
:104AA0000027D4E90195B9F1010905D52468002C46
:104AB000F7D13846BDE8F883AB89012B07D9B5F9A2
:104AC0000E30013303D029463046C04707436835CE
:104AD000E9E770477047704770B50E46B1F90E10A0
:104AE000002996B014461D4608DAB6F90C300022AB
:104AF0002A601A0610D44FF480630EE06A4600F074
:104B000095FC0028F1DB019A02F47042A2F50053F3
:104B10005A425A412A60EEE740230020236016B033
:104B200070BD00008B8973B59D0706460C4607D5FE
:104B300004F14703236023610123636102B070BD68
:104B400001AB6A46FFF7C8FF00990546304600F002
:104B500095F848B9B4F90C309A05EFD423F0030363
:104B600043F00203A381E3E70D4BB362A389206006
:104B700043F08003A381009B6361019B20615BB1D3
:104B8000B4F90E10304600F063FC28B1A38923F07D
:104B9000030343F00103A381A0890543A581CDE769
:104BA0003149000837B5002944D051F8043C019040
:104BB000002BA1F10404B8BFE41800F06BFC1E4AFE
:104BC0000198136833B96360146003B0BDE83040E6
:104BD00000F066BCA34208D9256861198B4201BF69
:104BE00019685B6849192160EDE71A465B680BB1EB
:104BF000A342FAD911685518A5420BD12468214463
:104C00005418A3421160E0D11C685B6853602144D2
:104C10001160DAE702D90C230360D6E72568611931
:104C20008B4204BF19685B68636004BF4919216047
:104C30005460CAE703B030BDCC4A002070B50E4EB8
:104C40000C463168054611B900F07AFB3060214608
:104C5000284600F075FB431C0AD0C41C24F0030452
:104C6000A04207D0211A284600F06AFB013001D18A
:104C70004FF0FF34204670BDD04A00202DE9F041AE
:104C8000CD1C25F0030508350C2D38BF0C25002D53
:104C9000074601DBA94205D90C233B6000263046BC
:104CA000BDE8F0812E4E00F0F5FB33681C4634BBA6
:104CB00029463846FFF7C2FF431C04464DD13468ED
:104CC0002646002E40D123683146384604EB0308BF
:104CD00000F036FB80453AD1216803356D1A25F086
:104CE000030508350C2D38BF0C2529463846FFF73B
:104CF000A5FF01302BD023682B4423600EE02268EF
:104D0000521B1ED40B2A16D96119A342256018BF65
:104D10005960636808BF316062514B60384604F1E6
:104D20000B0600F0BDFB26F00706231DF21AB6D0D5
:104D30009B1BA350B3E76268A3420CBF32605A606A
:104D4000ECE723466468B2E734467668B9E70C239B
:104D50003B60384600F0A4FBA1E72560DEE700BF1A
:104D6000CC4A00209368013B002B10B4936008DA12
:104D70009469A34201DB0A2903D15DF8044BFFF7D4
:104D800031BC1368581C1060197008465DF8044B5C
:104D90007047F8B506460F461446D518AC4201D107
:104DA000002007E014F8011B3A463046FFF7DAFF0F
:104DB000431CF3D1F8BD00002DE9F04F0D469DB026
:104DC00014469846064618B183690BB9FFF7E4FD0F
:104DD000894B9D421BD175686B6ED90705D4AB8991
:104DE0009A0502D4A86DFFF775FEAB891B0701D5A4
:104DF0002B69EBB929463046FFF746FCC0B16B6E14
:104E0000DC070ED54FF0FF301DB0BDE8F08F7B4BB7
:104E10009D4201D1B568DFE7794B9D4208BFF56837
:104E2000DAE7AB899805EDD4A86DFFF754FEE9E702
:104E30000023099320238DF82930CDF80C803023EE
:104E4000DFF8C0818DF82A304FF0010923469A46D9
:104E500013F8012B0AB1252AF9D1BAEB040B0BD0B8
:104E60005B46224629463046FFF793FF013000F0AB
:104E7000AA80099A5A4409929AF80030002B00F04F
:104E8000A28000234FF0FF32CDE905230AF1010A89
:104E9000049307938DF853301A935446052214F85F
:104EA000011B5848FBF79CF9049AD8B9D10644BFB6
:104EB00020238DF85330130744BF2B238DF8533034
:104EC0009AF800302A2B15D0079A544600204FF04C
:104ED0000A0C214611F8013B303B092B4ED9B0B1E9
:104EE000079214E0A0EB080309FA03F313430493B9
:104EF000A246D2E7039B191D1B680391002BBBBF81
:104F00005B4242F0020207930793B8BF04922378F2
:104F10002E2B0CD163782A2B35D1039B1A1D1B68CD
:104F20000392002BB8BF4FF0FF3302340593DFF834
:104F3000E4A0217803225046FBF752F940B1402308
:104F4000A0EB0A0003FA00F0049B0343013404932E
:104F500014F8011B2C488DF828100622FBF740F9A5
:104F600000283FD0294B1BBB039B073323F00703CB
:104F700008330393099B3B44099367E70CFB023218
:104F80000C460120A5E700230134059319464FF094
:104F90000A0C204610F8012B303A092A03D9002BBD
:104FA000C5D00591C3E70CFB012104460123F0E7BE
:104FB00003AB00932A46164B04A93046AFF300809A
:104FC0000746781CD6D16B6ED90705D4AB899A05F4
:104FD00002D4A86DFFF77FFDAB895B063FF512AFEA
:104FE000099811E703AB00932A46094B04A9304600
:104FF00000F080F8E4E700BFF05500081056000804
:10500000D0550008305600083A560008000000004D
:10501000934D0008365600082DE9F047164699468C
:105020008A680B69DDF820809342B8BF134633606D
:1050300091F8432007460C460AB1013333602368D8
:10504000990642BF336802333360256815F00605C0
:1050500006D104F1190AE36832689B1AAB4226DCD8
:1050600094F84320131E226818BF012392062BD404
:1050700004F1430249463846C04701301ED0236838
:10508000E568326803F00603042B08BFAD1AA36875
:1050900022690CBF25EAE57500259342C4BF9B1A1F
:1050A000ED1800261A34B5421AD1002008E0012379
:1050B000524649463846C047013003D14FF0FF30D1
:1050C000BDE8F0870135C6E7E1185A1C302081F8A9
:1050D0004300224494F8451082F843100233C7E796
:1050E0000123224649463846C0470130E6D0013602
:1050F000D9E700002DE9FF470F7E0C9D782F9146E0
:1051000080460C469A4601F1430207D8622F0AD81E
:10511000002F00F0D880582F00F0A38004F1420542
:1051200084F842703AE0A7F16303152BF6D801A189
:1051300051F823F08D510008A15100081D510008BD
:105140001D5100081D5100081D510008A151000803
:105150001D5100081D5100081D5100081D51000877
:10516000AD520008D15100088F5200081D510008AF
:105170001D510008CF5200081D510008D1510008F0
:105180001D5100081D510008975200082B681A1D78
:105190001B682A6004F1420584F842300123A3E031
:1051A00020682968060601F104030AD50E682B6001
:1051B000002E03DA2D23764284F843305E480A231A
:1051C00019E00E682B6010F0400F18BF36B2EFE701
:1051D0002B682068191D2960010601D51E6802E0B0
:1051E0004606FBD51E8854486F2F0CBF08230A23A0
:1051F000002184F843106568A560002DA2BF2168D6
:1052000021F0040121600EB9002D4DD01546B6FBEA
:10521000F3F103FB1167C75D05F8017D3746BB421B
:105220000E46F4D9082B0BD12368DE0708D5236975
:1052300061689942DEBF302305F8013C05F1FF3576
:10524000521B2261CDF800A04B4603AA21464046DE
:10525000FFF7E2FE01304CD14FF0FF3004B0BDE863
:10526000F087354881F845702968236851F8046B48
:1052700029601D0614D5DF0744BF43F020032360D7
:105280001EB9236823F0200323601023B0E72368AE
:1052900043F0200323607823284884F84530E3E76F
:1052A000590648BFB6B2E6E71546BBE72B68266845
:1052B0006169181D286035061B6801D5196002E078
:1052C0007006FBD51980002323611546BAE72B68C9
:1052D0001A1D2A601D68626800212846FAF780FFBF
:1052E00008B1401B606063682361002384F8433089
:1052F000A8E723692A4649464046D0470130ABD04B
:1053000023689B0713D4E068039B9842B8BF1846F4
:10531000A4E70123324649464046D04701309BD09E
:105320000135E36803995B1AAB42F2DCEBE7002539
:1053300004F11906F5E700BF41560008525600086F
:1053400038B5064D0023044608462B60FEF7DEFC08
:10535000431C02D12B6803B1236038BDD44A00201E
:1053600010B50C46B1F90E1000F0A0F80028ABBF44
:10537000636DA3891B1823F48053ACBF6365A381BD
:1053800010BD2DE9F0411F468B89DB0505460C4613
:10539000164605D5B1F90E100223002200F068F878
:1053A000A389B4F90E1023F48053A38132463B46FF
:1053B0002846BDE8F04100F017B810B50C46B1F929
:1053C0000E1000F055F8431CA38915BF606523F447
:1053D000805343F48053A38118BFA38110BDB1F95A
:1053E0000E1000F013B8000038B5074D044608460B
:1053F000114600222A601A46FEF7BCFC431C02D16B
:105400002B6803B1236038BDD44A002038B5064D5F
:105410000023044608462B60FEF7BAFC431C02D169
:105420002B6803B1236038BDD44A002038B5074D3E
:1054300000230446084611462B60FEF7ACFC431CD3
:1054400002D12B6803B1236038BD00BFD44A0020CD
:1054500038B5064D0023044608462B60FEF7A0FC35
:10546000431C02D12B6803B1236038BDD44A00200D
:1054700038B5074D04460846114600222A601A46F0
:10548000FEF790FC431C02D12B6803B1236038BDAA
:10549000D44A00200148FFF71DBB00BFC84A0020C6
:1054A0000148FFF718BB00BFC84A002038B5074DB8
:1054B00004460846114600222A601A46FEF74AFCB6
:1054C000431C02D12B6803B1236038BDD44A0020AD
:1054D000F8B500BFF8BC08BC9E467047F8B500BFE1
:0854E000F8BC08BC9E467047B1
:1054E8005461736B30312072756E6E696E672E2E43
:1054F8002E0D00005461736B30322072756E6E6928
:105508006E672E2E2E0D000074656D70206234209B
:10551800636F6E7620256C640D0A000074656D70EB
:105528002061667420636F6E20256C64200D0A006C
:105538006D795461736B30320000000064656661F8
:10554800756C745461736B30310000004455000869
:105558000000000000000000000000000000000043
:105568000002000018000000000000000000000019
:10557800385500080000000000000000000000008E
:105588000000000000020000080000000000000009
:1055980000000000000000000000000001020304F9
:1055A80006070809000000000102030449444C45AD
:1055B80000000000546D725100000000546D72200C
:1055C8005376630014000020000000000000000073
:1055D80000000000000000000000000000000000C3
:1055E80000000000000000000000000000000000B3
:1055F80000000000000000000000000000000000A3
:105608000000000000000000000000000000000092
:105618000000000000000000000000000000000082
:105628000000000000000000232D302B2000686CD3
:105638004C006566674546470030313233343536AD
:1056480037383941424344454600303132333435E6
:0C56580036373839616263646566000013
:0856640058B2FF7F01000000B5
:04566C00C50100086C
:04567000A10100088C
:1056740001000000100000000024F400AAAAAAAA55
:105684001400002000000000F05500081056000827
:10569400D0550008000000000000000000000000D9
:1056A40000000000000000000000000000000000F6
:1056B40000000000000000000000000000000000E6
:1056C40000000000000000000000000000000000D6
:1056D40000000000000000000000000000000000C6
:0456E40000000000C2
:04000005080043F5B7
:00000001FF
