:020000040800F2
:1000000000000220B9440008D90A0008DB0A0008F1
:10001000DD0A0008DF0A0008E10A0008000000000D
:100020000000000000000000000000005141000836
:10003000E30A000800000000F1410008133E000838
:100040000945000809450008094500080945000858
:100050000945000809450008094500080945000848
:100060000945000809450008094500080945000838
:100070000945000809450008094500080945000828
:100080000945000809450008E50A000800000000CD
:10009000000000000000000000000000094500080A
:1000A0000945000809450008F50A00080945000847
:1000B00009450008094500080945000809450008E8
:1000C00009450008094500080945000809450008D8
:1000D000094500080945000809450008000000001E
:1000E000050B00080945000809450008000000004C
:1000F00000000000000000000000000009450008AA
:1001000000000000094500080945000809450008ED
:1001100000000000000000000000000000000000DF
:10012000110B0008094500080945000809450008A9
:100130000945000800000000000000000000000069
:100140000000000000000000000000000945000859
:100150000945000809450008094500080945000847
:1001600009450008094500080000000000000000E3
:10017000000000000000000000000000000000007F
:100180000000000009450008000000000000000019
:080190000945000809450008BB
:1001A00010B5054C237833B9044B13B10448AFF3B1
:1001B00000800123237010BD7800002000000000A3
:1001C0009455000808B5034B1BB103490348AFF32E
:1001D000008008BD000000007C000020945500084D
:1001E00001F0FF01102A2BDB10F0070F08D010F8E8
:1001F000013B013A8B422DD010F0070F42B3F6D1EC
:10020000F0B441EA012141EA014122F007047FF004
:1002100000070023F0E80256083C85EA010586EA5B
:10022000010685FA47F5A3FA87F586FA47F6A5FA97
:1002300087F68EB9EED1F0BC01F0FF0102F00702A3
:1002400032B110F8013B013A83EA010313B1F8D14E
:100250000020704701387047002D06BF354603382F
:10026000073815F0010F07D1013015F4807F02BF68
:10027000013015F4C03F0130F0BC0138704700BFB9
:1002800053B94AB9002908BF00281CBF4FF0FF31FD
:100290004FF0FF3000F074B9ADF1080C6DE904CEF9
:1002A00000F006F8DDF804E0DDE9022304B0704751
:1002B0002DE9F047089D04468E46002B4DD18A4219
:1002C000944669D9B2FA82F252B101FA02F3C2F14C
:1002D000200120FA01F10CFA02FC41EA030E9440DD
:1002E0004FEA1C48210CBEFBF8F61FFA8CF708FBFE
:1002F00016E341EA034306FB07F199420AD91CEBD6
:10030000030306F1FF3080F01F81994240F21C8107
:10031000023E63445B1AA4B2B3FBF8F008FB10334F
:1003200044EA034400FB07F7A7420AD91CEB040484
:1003300000F1FF3380F00A81A74240F20781644454
:10034000023840EA0640E41B00261DB1D4400023D9
:10035000C5E900433146BDE8F0878B4209D9002D3D
:1003600000F0EF800026C5E9000130463146BDE8C7
:10037000F087B3FA83F6002E4AD18B4202D3824231
:1003800000F2F980841A61EB030301209E46002DE0
:10039000E0D0C5E9004EDDE702B9FFDEB2FA82F235
:1003A000002A40F09280A1EB0C014FEA1C471FFA93
:1003B0008CFE0126200CB1FBF7F307FB131140EA7A
:1003C00001410EFB03F0884208D91CEB010103F147
:1003D000FF3802D2884200F2CB804346091AA4B209
:1003E000B1FBF7F007FB101144EA01440EFB00FEDD
:1003F000A64508D91CEB040400F1FF3102D2A64542
:1004000000F2BB800846A4EB0E0440EA03409CE7E0
:10041000C6F12007B34022FA07FC4CEA030C20FA8D
:1004200007F401FA06F31C43F9404FEA1C4900FAAD
:1004300006F3B1FBF9F8200C1FFA8CFE09FB18112A
:1004400040EA014108FB0EF0884202FA06F20BD99D
:100450001CEB010108F1FF3A80F08880884240F2ED
:100460008580A8F102086144091AA4B2B1FBF9F031
:1004700009FB101144EA014100FB0EFE8E4508D92C
:100480001CEB010100F1FF346CD28E456AD90238B1
:10049000614440EA0840A0FB0294A1EB0E01A14296
:1004A000C846A64656D353D05DB1B3EB080261EB04
:1004B0000E0101FA07F722FA06F3F1401F43C5E9DE
:1004C000007100263146BDE8F087C2F12003D84014
:1004D0000CFA02FC21FA03F3914001434FEA1C4756
:1004E0001FFA8CFEB3FBF7F007FB10360B0C43EA48
:1004F000064300FB0EF69E4204FA02F408D91CEBF8
:10050000030300F1FF382FD29E422DD902386344F5
:100510009B1B89B2B3FBF7F607FB163341EA034195
:1005200006FB0EF38B4208D91CEB010106F1FF38E4
:1005300016D28B4214D9023E6144C91A46EA0046DB
:1005400038E72E46284605E70646E3E61846F8E66D
:100550004B45A9D2B9EB020864EB0C0E0138A3E7B6
:100560004646EAE7204694E74046D1E7D0467BE797
:10057000023B614432E7304609E76444023842E70F
:10058000704700BF30B58BB00024059406940794E3
:10059000089409940194264B1A6B42F004021A63E2
:1005A0001A6B02F004020192019A02941A6B42F053
:1005B00080021A631A6B02F080020292029A03947C
:1005C0001A6B42F001021A631A6B02F001020392E5
:1005D000039A04941A6B42F002021A631B6B03F035
:1005E00002030493049B134D22462021284601F068
:1005F000FBF94FF4005305934FF40413069307944B
:1006000005A90D4801F010F9202305930123069355
:100610000794089405A9284601F006F92246052109
:10062000282001F0CFFB282001F004FC0BB030BDE6
:1006300000380240000002400008024000B583B0CC
:1006400000220192094B196B41F4800119631B6B65
:1006500003F480030193019B0521382001F0B2FBD4
:10066000382001F0E7FB03B05DF804FB00380240DE
:1006700008B50EE00D4804F00FF80D4B186802F0B5
:100680009EFB01460B4803F081FF40F2DC5002F074
:1006900057FF4FF47A71064B186802F0BDFA012833
:1006A000E8D0054803F0F8FFEFE700BFAC550008BD
:1006B00098000020C4550008DC55000808B50EE07D
:1006C0000E4803F0E9FF0E4B186802F078FB014674
:1006D0000C4803F05BFF40F2DC5002F031FF4FF4B6
:1006E0007A71074B186802F097FA0128E8D003489E
:1006F00003F0D2FF044803F0CFFFECE7AC5500084D
:1007000098000020C4550008DC55000808B50EE02C
:100710000D4803F0C1FF0D4B186802F050FB014675
:100720000B4803F033FF40F2DC5002F009FF4FF4B6
:100730007A71064B186802F06FFA0128E8D0054874
:1007400003F0AAFFEFE700BFF8550008980000206B
:10075000C4550008DC55000808B50EE00C4803F04D
:100760009BFF0C4B186802F02AFB01460A4803F075
:100770000DFF4FF47A7002F0E3FE0A21054B186872
:1007800002F04AFA0128E9D0044803F085FFF0E7B7
:100790001056000898000020C4550008DC550008D9
:1007A00000B583B001904FF6FF73012201A9034801
:1007B00001F01BFE019803B05DF804FB540100201A
:1007C000B0F5005F00D0704708B52021034801F064
:1007D00011F9034B01221A7008BD00BF000002404E
:1007E000940000207047000070B582B00C46079D51
:1007F0000195069E009602F0F6FC012806D02146DF
:10080000074803F0C3FE012002B070BD286802F063
:100810007BFD0146034803F0B9FE0020F4E700BF6A
:10082000385600082856000808B50268034B9A425B
:1008300000D008BD01F026FBFBE700BF00480140E7
:1008400072B6FEE700B585B00023009301930293D2
:1008500003931448144A02604FF48032426083606C
:1008600001220261027680F82030C3620F49816262
:10087000C360C26180F83020426100F0D5FA68B9E7
:100880000B4B00930123019307230293694605480C
:1008900000F098FB20B905B05DF804FBFFF7D0FF2E
:1008A000FFF7CEFFAC000020002001400100000F48
:1008B0001200001008B50A480A4B03604FF4E133F8
:1008C000436000238360C36003610C224261836143
:1008D000C36101F05AFD00B908BDFFF7B1FF00BFC9
:1008E000540100200044004000B595B030220021A2
:1008F00008A803F043FE0023039304930593069393
:10090000079301931E4A116C41F080511164126CDF
:1009100002F080520192019A02931A4A116841F43E
:1009200040411160126802F440420292029A022190
:10093000089101220B9210220C920E910F931092AB
:100940004FF4A873119304231293139308A800F093
:1009500011FC80B90F230393022104910023059316
:100960004FF480520692079303A800F069FE20B965
:1009700015B05DF804FBFFF763FFFFF761FF00BFF1
:10098000003802400070004000B583B001F060FA0A
:10099000FFF7AAFFFFF7F6FDFFF750FEFFF752FF44
:1009A000FFF788FF384B01930823009300234FF48F
:1009B000007236493648FFF717FF364B019306237E
:1009C000009300234FF4007233493448FFF70CFFC3
:1009D000334B01930423009300234FF400723149F9
:1009E0003148FFF701FF314B0193022300930023AD
:1009F0004FF400722E492F48FFF7F6FE0021032026
:100A000001F012FF2C4C206002F0D9F901462B486E
:100A100003F0BCFD236813B1294803F03DFE264CCA
:100A200000231A461946206801F01CFF00231A46CD
:100A30001946206801F016FF00231A46194620685F
:100A400001F010FF00231A461946206801F00AFF42
:100A5000206802F0B4F901461A4803F097FD1A4BDA
:100A60001A681A4B19681A4803F090FD206802F0C2
:100A7000A6F90146114803F089FD164803F00CFE63
:100A800002F0E6FBFEE700BF9C0000205056000885
:100A900071060008A000002058560008BD06000896
:100AA000A4000020605600080D070008A8000020E0
:100AB000685600085907000898000020C45500082F
:100AC00070560008A45600089C0100200000002079
:100AD000C4560008F4560008FEE7FEE7FEE7FEE70E
:100AE000FEE7704708B5024800F0CBF908BD00BF2B
:100AF000AC00002008B5024801F018FA08BD00BF9C
:100B0000A001002008B54FF4005000F07DFF08BDA3
:100B100008B5024801F056F808BD00BFF4000020F7
:100B200000B583B0002200920D4B596C41F4804116
:100B30005964596C01F48041009100990192196C3B
:100B400041F0805119641B6C03F080530193019BA9
:100B50000F216FF0010001F035F903B05DF804FBDF
:100B60000038024002681D4B9A4200D0704710B511
:100B700082B0044600230193194A516C41F48071FC
:100B80005164526C02F480720192019A1548164A1F
:100B9000026043608360C3604FF4806202614FF47F
:100BA000006242614FF4005282614FF48072C26170
:100BB0000362436200F0A0FF60B90A4BA3639C6329
:100BC00000220521122001F0FDF8122001F032F977
:100BD00002B010BDFFF734FEEFE700BF0020014078
:100BE00000380240F40000201064024000B589B0D3
:100BF0000023039304930593069307930268154B10
:100C00009A4202D009B05DF804FB0021019103F57E
:100C1000FA331A6C42F400321A641A6C02F400328D
:100C20000192019A02911A6B42F001021A631B6B46
:100C300003F001030293029B0C230393022304930A
:100C4000032306930723079303A9034800F0ECFD51
:100C5000D8E700BF004400400000024030B589B032
:100C60000546002401941E4B5A6C42F480225A64BB
:100C70005B6C03F480230193019B02A903A800F09D
:100C8000B5FD00F0A3FD03461648A0FB03239B0C13
:100C9000013B1548154A026040F2E732C2604360EA
:100CA00004618460846101F047FA044610B1204673
:100CB00009B030BD0C4801F0F9F804460028F6D11F
:100CC0001A2001F0B7F80F2D01D90124EFE7002217
:100CD00029461A2001F076F8054B1D60E7E700BFB2
:100CE0000038024083DE1B43A00100200048014081
:100CF000080000204A4B5A6822F440325A605A6871
:100D000041680A435A600268536823F48073536051
:100D100002685368016943EA01235360026853681B
:100D200023F0407353600268536881680B4353603B
:100D30000268936823F40063936002689368C16853
:100D40000B439360826A374B9A4257D0026893688C
:100D500023F07063936002689368816A0B43936029
:100D60000268936823F04053936002689368C16AF5
:100D70000B4393600268936823F002039360026858
:100D80009368017E43EA4103936090F82030002B82
:100D90003FD00268536843F40063536002685368AD
:100DA00023F46043536001684B68426A013A43EAA6
:100DB00042334B600268D36A23F47003D362016844
:100DC000CB6AC269013A43EA0253CB620268936874
:100DD00023F4007393600268936890F8301043EA3C
:100DE000412393600268936823F4806393600268F0
:100DF0009368416943EA812393607047026893686E
:100E000023F0706393600268936823F0405393600B
:100E1000B0E70268536823F400635360CAE700BF79
:100E2000002301400100000F38B310B50446036CE5
:100E300043B1236C13F0100F0BD00120002384F872
:100E40003C3010BDFFF78EFE0023636484F83C3015
:100E5000EFE7236C23F4885323F0020343F00203EB
:100E600023642046FFF746FF00206064236C23F0D4
:100E7000030343F001032364E0E701207047704758
:100E8000704770B5044603681E685D6816F0020F6F
:100E90002FD005F0200262B3026C12F0100F03D1C4
:100EA000026C42F4007202649A6812F0405F19D139
:100EB000227EBAB9DA6A12F4700F03D09A6812F47B
:100EC000806F0FD15A6822F020025A60236C23F4FD
:100ED00080732364236C13F4805F03D1236C43F08D
:100EE000010323642046FFF77DFC23686FF01202A4
:100EF0001A6005F0800316F0040F37D0002B35D0B0
:100F0000236C13F0100F03D1236C43F400532364BC
:100F100023689A6812F4401F21D19A6B12F4401F83
:100F200003D09A6812F4806F19D15A6812F4806F56
:100F300015D19A6812F0405F11D1227E7AB95A68B1
:100F400022F080025A60236C23F480532364236CC4
:100F500013F4807F03D1236C43F001032364204604
:100F600000F006F923686FF00C021A6005F04003E8
:100F700016F0010F05D023B123681B6813F0010F91
:100F800006D105F0806516F0200F00D065B970BD60
:100F9000236C43F4803323642046FFF770FF2368FB
:100FA0006FF001021A60ECE7636C43F002036364C4
:100FB00023686FF020051D602046FFF761FF23685E
:100FC0001D60E4E730B482B00023019390F83C3018
:100FD000012B00F0C080012380F83C300B68092B06
:100FE00041D90468E2689BB203EB43031E3B4FF018
:100FF000070C0CFA03F322EA0303E3600468E268D7
:101000000B8803EB43031E3B8D6805FA03F3134380
:10101000E3604B68062B3DD80468626B03EB8303E7
:10102000053B4FF01F0C0CFA03F322EA0303636342
:101030000468626B4B6803EB8303053BB1F800C0A7
:101040000CFA03F3134363630268444B9A4251D092
:101050000268424B9A425AD0002380F83C3018462E
:1010600002B030BC7047046822699BB203EB4303B3
:101070004FF0070C0CFA03F322EA03032361046820
:1010800022690B8803EB43038D6805FA03F31343CE
:101090002361BEE70C2B16D805682A6B03EB83038C
:1010A000233B1F2404FA03F322EA03032B6305689E
:1010B0002A6B4B6803EB8303233B0C8804FA03F38E
:1010C00013432B63C0E70568EA6A03EB8303413BE4
:1010D0001F2404FA03F322EA0303EB620568EA6AB9
:1010E0004B6803EB8303413B0C8804FA03F313437F
:1010F000EB62A9E70B68122BAAD1194B5A6822F4AC
:1011000000025A605A6842F480025A60A0E70B68F5
:10111000144A934201D0112B9ED1114B5A6822F4EC
:1011200080025A605A6842F400025A600A680D4B05
:101130009A4291D10C4B1B680C4AA2FB03239B0CD7
:1011400003EB83035B000193019B002B84D0019B85
:10115000013B0193F8E7022082E700BF0020014035
:1011600000230140120000100C00002083DE1B430E
:1011700070470000002800F0E08170B582B004469E
:10118000036813F0010F3BD09F4B9B6803F00C03E7
:10119000042B2CD09C4B9B6803F00C03082B21D014
:1011A0006368B3F5803F4FD0B3F5A02F52D0964B74
:1011B0001A6822F480321A601A6822F480221A60B7
:1011C0006368002B50D000F069FE05468E4B1B680B
:1011D00013F4003F14D100F061FE401B6428F5D9E0
:1011E0000320B1E1884B5B6813F4800FD8D0864BA5
:1011F0001B6813F4003F03D06368002B00F09F814D
:10120000236813F0020F54D07F4B9B6813F00C0F30
:101210003ED07D4B9B6803F00C03082B33D0E36872
:10122000002B68D0794B01221A6000F037FE05468A
:10123000754B1B6813F0020F54D100F02FFE401BBA
:101240000228F5D903207FE16F4A136843F4803305
:101250001360B5E76C4B1A6842F480221A601A6872
:1012600042F480321A60ABE700F018FE0546664B88
:101270001B6813F4003FC3D000F010FE401B64282D
:10128000F5D9032060E1604B5B6813F4800FC6D191
:101290005D4B1B6813F0020F03D0E368012B40F095
:1012A0005081594A136823F0F803216943EAC103C6
:1012B0001360236813F0080F42D063696BB3534B7C
:1012C0000122C3F8802E00F0E9FD05464E4B5B6F0E
:1012D00013F0020F34D100F0E1FD401B0228F5D9D4
:1012E000032031E1484A136823F0F803216943EAF7
:1012F000C1031360DDE7454B00221A6000F0CEFD0C
:101300000546414B1B6813F0020FD2D000F0C6FD1A
:10131000401B0228F5D9032016E13C4B0022C3F8FC
:10132000802E00F0BBFD0546374B5B6F13F0020FBC
:1013300006D000F0B3FD401B0228F5D9032003E1DD
:10134000236813F0040F77D02F4B1B6C13F0805FD2
:1013500033D1002301932C4B1A6C42F080521A6453
:101360001B6C03F080530193019B0125284B1B68E4
:1013700013F4807F23D0A368012B34D0052B38D001
:10138000214B1A6F22F001021A671A6F22F0040231
:101390001A67A368002B3DD000F080FD06461A4B6B
:1013A0001B6F13F0020F46D100F078FD801B41F255
:1013B00088339842F3D90320C6E00025D6E7144AC3
:1013C000136843F48073136000F068FD0646104B09
:1013D0001B6813F4807FCED100F060FD801B0228D3
:1013E000F5D90320B0E0084A136F43F001031367F7
:1013F000CFE7054B1A6F42F004021A671A6F42F0EA
:1014000001021A67C5E700BF0038024000004742EA
:101410000070004000F042FD0646524B1B6F13F077
:10142000020F08D000F03AFD801B41F28833984249
:10143000F3D9032088E0EDB9A369002B00F0838085
:10144000484A926802F00C02082A51D0022B17D0A9
:10145000454B00221A6600F021FD0446414B1B68F3
:1014600013F0007F42D000F019FD001B0228F5D9CF
:10147000032069E03B4A136C23F080531364DBE7DD
:10148000394B00221A6600F009FD0546354B1B68F2
:1014900013F0007F06D000F001FD401B0228F5D9B3
:1014A000032051E0E369226A1343626A43EA82132C
:1014B000A26A5208013A43EA0243E26A43EA02633B
:1014C000284A5360284B01221A6600F0E7FC0446C4
:1014D000244B1B6813F0007F06D100F0DFFC001BDB
:1014E0000228F5D903202FE000202DE000202BE07A
:1014F000012B2BD01B4B5B6803F48001E269914206
:1015000026D103F03F02216A8A4223D1616A47F65D
:10151000C0721A40B2EB811F1ED103F44031A26A9F
:101520005208013AB1EB024F18D103F07063E26A3E
:10153000B3EB026F14D1002006E0012070470120B8
:1015400002E0012000E0002002B070BD0120FBE7B6
:101550000120F9E70120F7E70120F5E70120F3E793
:101560000120F1E7003802400000474208B5314B46
:101570009B6803F00C03042B57D0082B57D12D4B3D
:101580005A6802F03F025B6813F4800F2AD0294B9F
:101590005968C1F3881C4FEA4C11B1EB0C006EEB9B
:1015A0000E0E4FEA8E1343EA90638101091A63EB32
:1015B0000E03DB0043EA5173C90011EB0C0C43F13D
:1015C0000003590200234FEA4C2041EADC51FEF7A8
:1015D00057FE184B5B68C3F3014301335B00B0FB5C
:1015E000F3F025E0134B5968C1F3881C4FEA4C1106
:1015F000B1EB0C006EEB0E0E4FEA8E1343EA9063D4
:101600008101091A63EB0E03DB0043EA5173C90041
:1016100011EB0C0C43F10003990200234FEA8C20DC
:1016200041EA9C51FEF72CFED3E7034800E0034853
:1016300008BD00BF0038024000127A000024F40008
:10164000002800F09B8070B50D4604464F4B1B6888
:1016500003F007038B4208D2CBB24C4A13701368D5
:1016600003F007038B4240F08B80236813F0020FD6
:1016700017D013F0040F04D0454A936843F4E053A5
:101680009360236813F0080F04D0414A936843F431
:10169000604393603E4A936823F0F003A1680B43D4
:1016A0009360236813F0010F32D06368012B21D0BF
:1016B0009A1E012A25D9364A126812F0020F61D00B
:1016C00033498A6822F0030213438B6000F0E6FB83
:1016D00006462F4B9B6803F00C036268B3EB820F46
:1016E00016D000F0DBFB801B41F288339842F0D922
:1016F000032042E0264A126812F4003FE0D10120A4
:101700003BE0234A126812F0007FD9D1012034E077
:101710001E4B1B6803F00703AB4207D9EAB21B4B11
:101720001A701B6803F00703AB422DD1236813F036
:10173000040F06D0164A936823F4E053E1680B4384
:101740009360236813F0080F07D0114A936823F4BD
:101750006043216943EAC1039360FFF707FF0C4B25
:101760009B68C3F303130B4AD35CD8400A4B186041
:101770000A4B1868FFF772FA002070BD012070470D
:101780000120FAE70120F8E70120F6E7003C0240DB
:1017900000380240185700080C0000200800002004
:1017A000014B1868704700BF0C00002008B5FFF718
:1017B000F7FF044B9B68C3F38223034AD35CD840F2
:1017C00008BD00BF003802402857000808B5FFF7E1
:1017D000E7FF044B9B68C3F34233034AD35CD84012
:1017E00008BD00BF00380240285700080F230360DF
:1017F0000B4B9A6802F0030242609A6802F0F00212
:1018000082609A6802F4E052C2609B68DB0803F4CD
:10181000E0530361034B1B6803F007030B60704741
:1018200000380240003C024000230F2B00F2D2801F
:1018300070B582B060E085685E000324B44025EA9C
:101840000405CC68B4402C438460456825EA020551
:101850004C68C4F300129A402A4342605AE0DC0804
:10186000083450F8246003F0070295000F22AA40C4
:1018700026EA020E0A69AA4042EA0E0240F8242033
:101880005CE0042200E0002202FA0EF22A43023455
:10189000514D45F82420514A94686FEA0C0224EA1D
:1018A0000C054E6816F4801F01D04CEA04054B4C21
:1018B000A560E46802EA04054E6816F4001F01D032
:1018C0004CEA0405454CE560646802EA04054E688C
:1018D00016F4003F01D04CEA0405404C65602468D2
:1018E00022404D6815F4803F01D04CEA04023B4C85
:1018F000226001330F2B6BD801229A400C6804EA56
:10190000020C32EA0404F4D14C6804F00304013CF4
:10191000012C90D94A6802F00302032A09D0C46856
:101920005D000322AA4024EA02048A68AA402243F6
:10193000C2604A6802F00302022A90D004684FEAAB
:10194000430E032202FA0EF224EA02044A6802F06D
:10195000030202FA0EF2224302604A6812F4403F88
:10196000C7D0002201921E4A546C44F4804454644F
:10197000526C02F480420192019A9C08A51C164AFE
:1019800052F8255003F003024FEA820E0F2202FAAA
:101990000EF225EA0205134A90423FF474AF02F5B5
:1019A000806290420ED002F5806290420CD002F527
:1019B000806290420AD002F5806290423FF461AFAB
:1019C000072261E701225FE702225DE703225BE76E
:1019D00002B070BD704700BF00380140003C0140BC
:1019E00000380240000002400AB1816170470904DA
:1019F00081617047436901EA030221EA030141EA78
:101A0000024181617047000008B5054B5B690342E4
:101A100000D108BD024B5861FEF7D2FEF9E700BFC6
:101A2000003C014010B40368D9B210390C4AA2FB43
:101A3000014212090B4CA25CC2655F2909D923F44B
:101A40007F7323F0030304338365806D5DF8044BDB
:101A5000704723F47F7323F003038365F5E700BF2A
:101A6000ABAAAAAA10570008836A826992B9012B0F
:101A70000AD0022B02D00BB100207047C36A13F0CA
:101A8000807F28D100207047C36AB3F1C07F24D083
:101A900000207047B2F5005F09D0022B25D9032B37
:101AA00025D1C36A13F0807F23D100207047032B18
:101AB00003D8DFE803F01404140A00207047C36A57
:101AC00013F0807F0DD100207047C36AB3F1C07F4F
:101AD00009D0002070470120704701207047012085
:101AE0007047012070470120704701207047002097
:101AF000704701207047000070B5044600F0CEF931
:101B0000002C5BD00546022384F83530002384F88E
:101B100034302268136823F00103136023681A68C5
:101B200012F0010F0AD000F0B9F9431B052BF5D9CB
:101B300020236365032084F8350070BD1A682048AF
:101B400010406168A2680A43E1680A4321690A43B8
:101B500061690A43A1690A43E1690A43216A0A43A8
:101B60000243616A04291ED01A602668756925F04F
:101B70000705636A1D43042B07D1A36A1D43E36A6B
:101B80001BB12046FFF770FF90B975612046FFF743
:101B900049FFE26D3F23934083600020606501238D
:101BA00084F83530C9E7E16A206B01430A43DBE77B
:101BB00040236365012084F83500BEE70120BCE7BF
:101BC0003F8010F0F0B583B0044600230193724BC0
:101BD0001D68724BA3FB0535AD0A876D3E68C26D6B
:101BE00008239340334210D003681A6812F0040FA0
:101BF0000BD01A6822F004021A60C26D08239340C9
:101C0000BB60436D43F001034365E26D01239340E4
:101C1000334209D02268526912F0800F04D0BB60B1
:101C2000636D43F002036365E26D04239340334226
:101C300009D02268126812F0020F04D0BB60636DF5
:101C400043F004036365E26D10239340334224D0D4
:101C50002268126812F0080F1FD0BB6023681A6850
:101C600012F4802F0DD01B6813F4002F04D1236CC5
:101C70009BB12046984710E0A36C73B1204698476B
:101C80000BE01A6812F4807F03D11A6822F0080270
:101C90001A60236C0BB120469847E26D20239340D5
:101CA000334255D02268126812F0100F50D0BB603A
:101CB00094F83530DBB2052B0ED023681A6812F485
:101CC000802F33D01B6813F4002F2AD1636C002BB4
:101CD0003ED0204698473BE02268136823F0160365
:101CE00013602268536923F080035361236CA3B10E
:101CF0002268136823F008031360E26D3F239340CA
:101D0000BB60012384F83530002384F83430236D20
:101D1000002B3FD0204698473CE0A36C002BE7D136
:101D2000EBE7E36BA3B12046984711E01A6812F481
:101D3000807F09D11A6822F010021A60012384F80A
:101D40003530002384F83430E36B0BB120469847DC
:101D5000636DFBB1636D13F0010F17D0052384F899
:101D600035302268136823F001031360019B0133AF
:101D70000193AB4204D823681B6813F0010FF5D11F
:101D8000012384F83530002384F83430E36C0BB140
:101D90002046984703B0F0BD0C000020B5814E1BD3
:101DA000074AD36823F4E0631B041B0C000200F411
:101DB000E060034343F0BF6343F40033D3607047F4
:101DC00000ED00E000B5194BDB68C3F30223C3F15B
:101DD000070CBCF1040F28BF4FF0040C03F1040EF4
:101DE000BEF1060F18D9033B4FF0FF3E0EFA0CFC74
:101DF00021EA0C0199400EFA03F322EA0303194386
:101E000000280BDB0901C9B200F1604000F5614018
:101E100080F800135DF804FB0023E5E700F00F00F5
:101E20000901C9B2024B1954F4E700BF00ED00E00C
:101E300014ED00E0002807DB00F01F024009012339
:101E40009340024A42F82030704700BF00E100E0B2
:101E500008B50B4B1A6842F400721A601A6842F413
:101E600080621A601A6842F480721A600320FFF7D9
:101E700097FF0F20FEF7F2FEFEF752FE002008BD8E
:101E8000003C0240034A1168034B1B780B4413606B
:101E9000704700BFE801002004000020014B1868D3
:101EA000704700BFE80100207047000090F83D3007
:101EB000DBB2012B2FD1022380F83D300268D368BA
:101EC00043F00103D3600368154A934218D0B3F17D
:101ED000804F15D0A2F57C42934211D002F580626A
:101EE00093420DD002F58062934209D002F59A32F6
:101EF000934205D01A6842F001021A600020704730
:101F00009A6802F00702062A07D01A6842F0010216
:101F10001A6000207047012070470020704700BF02
:101F200000000140704770477047704770B5044625
:101F30000368DE681D6915F0020F10D016F0020F5D
:101F40000DD06FF002021A610123037703689B69C9
:101F500013F0030F5ED0FFF7E6FF0023237715F0A1
:101F6000040F12D016F0040F0FD023686FF0040294
:101F70001A610223237723689B6913F4407F4FD0B3
:101F80002046FFF7D0FF0023237715F0080F12D06B
:101F900016F0080F0FD023686FF008021A610423AF
:101FA00023772368DB6913F0030F40D02046FFF747
:101FB000BAFF0023237715F0100F12D016F0100F80
:101FC0000FD023686FF010021A610823237723686B
:101FD000DB6913F4407F31D02046FFF7A4FF0023D4
:101FE000237715F0010F02D016F0010F2DD115F057
:101FF000800F02D016F0800F2FD115F0400F02D0C5
:1020000016F0400F31D115F0200F02D016F0200F3E
:1020100033D170BDFFF786FF2046FFF785FF9CE7B1
:102020002046FFF77FFF2046FFF77EFFABE7204605
:10203000FFF778FF2046FFF777FFBAE72046FFF764
:1020400071FF2046FFF770FFC9E723686FF00102B8
:102050001A612046FEF7E8FBC9E723686FF08002AB
:102060001A61204600F095F8C7E723686FF0400238
:102070001A612046FFF759FFC5E723686FF0200279
:102080001A61204600F084F8C3E700000368294A7B
:1020900090420ED0B0F1804F0BD0A2F57C4290421E
:1020A00007D002F58062904203D002F58062904230
:1020B00003D123F070034A6813431E4A90421AD09A
:1020C000B0F1804F17D0A2F57C42904213D002F5B8
:1020D000806290420FD002F5806290420BD002F5F0
:1020E0009A32904207D002F58062904203D002F506
:1020F0008062904203D123F44073CA68134323F0F3
:1021000080034A69134303608B68C3620B68836270
:10211000084B98420AD001234361036913F0010F71
:1021200003D0036923F00103036170470B69036364
:10213000F1E700BF0000014040B310B5044690F83D
:102140003D30F3B1022384F83D30214651F8040BB1
:10215000FFF79CFF012384F8463084F83E3084F872
:102160003F3084F8403084F8413084F8423084F8BD
:10217000433084F8443084F8453084F83D30002002
:1021800010BD80F83C30FFF78FFEDBE70120704781
:1021900070477047026802F10C0353E8003F23F4D4
:1021A00090730C3242E800310029F3D1026802F149
:1021B000140353E8003F23F00103143242E80031D6
:1021C0000029F3D1036B012B05D0202380F8423086
:1021D000002303637047026802F10C0353E8003FD9
:1021E00023F010030C3242E800310029F3D1ECE770
:1021F00038B504460268136923F44053C1680B43A1
:10220000136183680269134342691343C2691A4325
:102210000168CB6823F4164323F00C031343CB600F
:102220000268536923F4407381690B435361036867
:10223000314A934206D002F58062934202D0FFF702
:10224000B5FA01E0FFF7C2FAE369B3F5004F29D010
:102250000021031849411B1841F10001C90041EA5E
:102260005371DB00181863684FEA83024FEA9373D7
:1022700041F10001FEF704F8204DA5FB00325109A1
:10228000642303FB11031B013233A5FB03235B090A
:1022900003F0F00202EB011203F00F032168134474
:1022A0008B6038BD0023021843EB0301121841F183
:1022B0000001C90041EA5271D200101841F1000139
:1022C000626892185B41FDF7DBFF0C4DA5FB003205
:1022D0005109642303FB1103DB003233A5FB032305
:1022E0005B095A0002F4F87202EB011203F00703D3
:1022F000216813448B60D4E7001001401F85EB5127
:102300002DE9F04383B005460E4617469946DDF8A1
:1023100028802C68246836EA04030CBF4FF0010CB7
:102320004FF0000CBC4528D1B8F1FF3FF1D0FFF7CA
:10233000B5FDA0EB0900404523D8B8F1000F22D02D
:102340002B68DA6812F0040FE3D0802EE1D0402E23
:10235000DFD01A6812F0080FDBD0002401941A684D
:1023600001925B680193019B2846FFF713FF082346
:102370006B6485F84040012000E0002003B0BDE818
:10238000F0830320FAE70320F8E760B310B50446B2
:1023900090F8413013B3242384F841302268D36885
:1023A00023F40053D3602046FFF722FF226813690D
:1023B00023F4904313612268536923F02A03536185
:1023C0002268D36843F40053D36000206064202364
:1023D00084F8413084F84230606310BD80F84030AA
:1023E000FEF704FCD7E7012070472DE9F04182B0E9
:1023F0001E4690F84130DBB2202B56D104460D46E4
:102400009046002955D00AB901204FE000234364CB
:10241000212380F84130FFF741FD0746A4F82480CE
:10242000A4F82680A368B3F5805F02D04FF00008BF
:1024300014E023692BB34FF000080FE0202384F849
:102440004130032032E038F8023B2268C3F308032E
:102450005360E28C92B2013A92B2E284E38C9BB276
:1024600093B100963B46002280212046FFF748FFAB
:102470000028E3D1002DE6D015F8012B23685A601F
:10248000E7E7A8460025E9E700963B460022402101
:102490002046FFF735FF18B9202384F8413005E0C6
:1024A000202384F84130032000E0022002B0BDE880
:1024B000F0810120FAE70000034AD2F8883043F4A3
:1024C0007003C2F88830704700ED00E000F10803A7
:1024D00043604FF0FF328260C360036100230360FA
:1024E000704700230361704743684B609A688A60B5
:1024F000516099600861036801330360704730B42C
:102500000D68B5F1FF3F11D000F108031C465B6870
:102510001A68AA42FAD963684B6099608C6061605E
:10252000086103680133036030BC70470469F2E757
:102530000369416882688A60416851605A688242D2
:1025400006D0002202611A68013A1A6018687047C2
:1025500082685A60F5E70346406A18B11B6B186839
:10256000C0F13800704710B5044601F003FEA26BBD
:10257000E36B9A4204D0002401F01EFE204610BDF9
:102580000124F9E710B5044601F0F4FDA36B23B96B
:10259000012401F011FE204610BD0024F9E770B5BA
:1025A00004461546866B026C5AB903681BB10020BD
:1025B0000136A66370BD806801F05CF90023A3605A
:1025C000F6E76DB9406801F0CBFF226C63681344F5
:1025D0006360A268934219D3236863602846E7E7E3
:1025E000C06801F0BDFF226C5142E3689B1AE360B2
:1025F0002268934202D2A3680B44E360022D01D00B
:102600000020D5E726B1013E0020D1E72846CFE7DC
:102610000020CDE70346026C6AB110B50846D968C0
:102620001144D9609C68A14201D31968D960D96866
:1026300001F096FF10BD704738B5054601F09AFDD0
:1026400095F8454064B201E0013C64B2002C0ADD1B
:102650006B6A43B105F1240001F016F80028F3D0AD
:1026600001F0A6F8F0E7FF2385F8453001F0A4FD5E
:1026700001F080FD95F8444064B201E0013C64B291
:10268000002C0ADD2B6943B105F1100000F0FCFFBE
:102690000028F3D001F08CF8F0E7FF2385F84430F0
:1026A00001F08AFD38BD38B5E0B10D46044601F0B1
:1026B00061FD2368E26B216C01FB0230A060002009
:1026C000A0636360013A02FB0133E360FF2384F8F7
:1026D000443084F84530FDB9236963B901F06CFDDD
:1026E000012038BD4FF0500383F31188BFF36F8F83
:1026F000BFF34F8FFEE704F1100000F0C5FF002884
:10270000ECD04FF0E0234FF08052C3F8042DBFF31C
:102710004F8FBFF36F8FE1E704F11000FFF7D6FE94
:1027200004F12400FFF7D2FED8E738B51D46049C1B
:102730000B4649B92460E063236401212046FFF77A
:10274000B2FF84F84C5038BD2260F4E740B94FF036
:10275000500383F31188BFF36F8FBFF34F8FFEE7F2
:1027600010B584B01C46844653B192B189B94FF07C
:10277000500383F31188BFF36F8FBFF34F8FFEE7D2
:102780004FF0500383F31188BFF36F8FBFF34F8F68
:10279000FEE76AB150230393039B502B13D04FF0F5
:1027A000500383F31188BFF36F8FBFF34F8FFEE7A2
:1027B0000029EFD04FF0500383F31188BFF36F8FE0
:1027C000BFF34F8FFEE7039B012384F8463000944C
:1027D0009DF818306046FFF7A8FF204604B010BDF2
:1027E00040B94FF0500383F31188BFF36F8FBFF3ED
:1027F0004F8FFEE7F0B583B00D461446064601FB49
:1028000000F0503001F08EFB074650B1002380F8F5
:1028100046300090234600F1500229463046FFF72B
:1028200084FF384603B0F0BD40B94FF0500383F346
:102830001188BFF36F8FBFF34F8FFEE710B50C46C3
:10284000884208D24FF0500383F31188BFF36F8F93
:10285000BFF34F8FFEE702220021FFF7C1FF00B157
:10286000846310BDF0B585B0019288B10F461D4656
:102870000446B1B1022D20D1E36B012B1DD04FF0E6
:10288000500383F31188BFF36F8FBFF34F8FFEE7C1
:102890004FF0500383F31188BFF36F8FBFF34F8F57
:1028A000FEE7036C002BE5D04FF0500383F3118853
:1028B000BFF36F8FBFF34F8FFEE700F07FFF064639
:1028C00058B9019B002B48D04FF0500383F3118877
:1028D000BFF36F8FBFF34F8FFEE700263DE02A4620
:1028E00039462046FFF75BFE636A7BB948B14FF07B
:1028F000E0234FF08052C3F8042DBFF34F8FBFF396
:102900006F8F01F059FC012005B0F0BD04F12400E7
:1029100000F0BAFE0028F4D04FF0E0234FF08052D0
:10292000C3F8042DBFF34F8FBFF36F8FE9E701F0BA
:1029300043FC0020E8E702A800F0ECFE012619E0C5
:10294000002384F8443021E0002384F8453023E05C
:102950002046FFF771FE00F077FD01F00BFCA26B43
:10296000E36B9A42BBD3022DB9D0019B002BDED082
:10297000002EE0D001F020FC00F0B8FC01F0FAFBE2
:1029800094F8442052B2B2F1FF3FD9D094F84520D8
:1029900052B2B2F1FF3FD7D001F00EFC01A902A85C
:1029A00000F0C4FED8B92046FFF7DDFD0028CFD0E7
:1029B000019904F1100000F033FE2046FFF73CFEC1
:1029C00000F042FD0028C8D14FF0E0234FF08052C4
:1029D000C3F8042DBFF34F8FBFF36F8FBDE72046C1
:1029E000FFF72AFE00F030FD00208DE72DE9F843C7
:1029F00090B10F4616461C460546B1B1022C20D1B7
:102A0000EB6B012B1DD04FF0500383F31188BFF304
:102A10006F8FBFF34F8FFEE74FF0500383F31188A2
:102A2000BFF36F8FBFF34F8FFEE7036C002BE5D032
:102A30004FF0500383F31188BFF36F8FBFF34F8FB5
:102A4000FEE701F0BDFCEFF311894FF0500383F373
:102A50001188BFF36F8FBFF34F8FAA6BEB6B9A4256
:102A600006D3022C04D0002089F31188BDE8F88336
:102A700095F845804FFA88F8AB6B224639462846D0
:102A8000FFF78DFDB8F1FF3F06D008F101035BB2FF
:102A900085F845300120E7E76B6A0BB90120E3E7D1
:102AA00005F1240000F0F0FD18B126B101203060DE
:102AB000DAE70120D8E70120D6E7F0B585B001922A
:102AC00090B10F460446C1B100F078FE064600BB47
:102AD000019B002B5ED04FF0500383F31188BFF3AE
:102AE0006F8FBFF34F8FFEE74FF0500383F31188D2
:102AF000BFF36F8FBFF34F8FFEE7036C002BE3D064
:102B00004FF0500383F31188BFF36F8FBFF34F8FE4
:102B1000FEE700263EE039462046FFF77BFD013DFB
:102B2000A563236923B901F047FB012005B0F0BD7F
:102B300004F1100000F0A8FD0028F4D04FF0E023CD
:102B40004FF08052C3F8042DBFF34F8FBFF36F8F48
:102B5000E9E701F031FB0020E8E702A800F0DAFD28
:102B6000012621E0002384F8443029E0002384F882
:102B700045302BE02046FFF75FFD00F065FC09E0E3
:102B80002046FFF759FD00F05FFC2046FFF7FAFCF6
:102B900000283FD101F0EEFAA56B002DBBD1019BBF
:102BA000002BD6D0002ED8D001F006FB00F09EFB03
:102BB00001F0E0FA94F844305BB2B3F1FF3FD1D0BA
:102BC00094F845305BB2B3F1FF3FCFD001F0F4FA97
:102BD00001A902A800F0AAFD0028D1D12046FFF7E4
:102BE000D1FC0028C6D0019904F1240000F018FDA2
:102BF0002046FFF721FD00F027FC0028CAD14FF046
:102C0000E0234FF08052C3F8042DBFF34F8FBFF382
:102C10006F8FBFE7002089E770B584B0019158B18C
:102C20000446036C8BB14FF0500383F31188BFF35C
:102C30006F8FBFF34F8FFEE74FF0500383F3118880
:102C4000BFF36F8FBFF34F8FFEE700F0B7FD054670
:102C500050B9019B5BB14FF0500383F31188BFF370
:102C60006F8FBFF34F8FFEE70026354655E00646CF
:102C700053E0013BA36323683BB123694BB901F0E7
:102C80009BFA0126304604B070BD00F08BFEA060B8
:102C9000F3E704F1100000F0F7FC0028EFD04FF04C
:102CA000E0234FF08052C3F8042DBFF34F8FBFF3E2
:102CB0006F8FE4E746B14FF0500383F31188BFF301
:102CC0006F8FBFF34F8FFEE701F076FADAE702A8C5
:102CD00000F020FD01252AE0002384F8443032E092
:102CE000002384F8453034E001F044FAA06800F095
:102CF00075FD064601F060FA3BE02046FFF79CFCBC
:102D000000F0A2FB09E02046FFF796FC00F09CFBD8
:102D10002046FFF737FC002842D101F02BFAA36BC5
:102D2000002BA6D1019B002BC4D0002DCFD001F0E9
:102D300043FA00F0DBFA01F01DFA94F844305BB27C
:102D4000B3F1FF3FC8D094F845305BB2B3F1FF3F19
:102D5000C6D001F031FA01A902A800F0E7FC002872
:102D6000D1D12046FFF70EFC0028C6D02368002BE7
:102D7000BAD0019904F1240000F052FC2046FFF77C
:102D80005BFC00F061FB0028C7D14FF0E0234FF05F
:102D90008052C3F8042DBFF34F8FBFF36F8FBCE792
:102DA0000EB900266EE701F0E5F92046FFF7D3FBE8
:102DB0000146A06800F0A6FD01F0FEF9F1E740B180
:102DC00010B5044601F0D6F9A46B01F0F5F92046E0
:102DD00010BD4FF0500383F31188BFF36F8FBFF323
:102DE0004F8FFEE70023072B0CD8074A52F83320F9
:102DF0000AB10133F7E7044A42F8331002EBC30388
:102E000058607047704700BFEC01002070B5044661
:102E10000D46164601F0AEF994F844305BB2B3F1BA
:102E2000FF3F0DD094F845305BB2B3F1FF3F0BD0BC
:102E300001F0C2F9A36B5BB12046FFF7FDFB70BD4B
:102E4000002384F84430EDE7002384F84530EFE7B1
:102E50003246294604F1240000F0FAFBECE70000BA
:102E6000084B1B681B6823B9074B4FF0FF321A60F1
:102E70007047044B1B68DB68DB685A68024B1A60BA
:102E8000704700BF30020020D80600202DE9F0472F
:102E900080460D4617469946089EDDF824A00A9CF8
:102EA0009200A521206B01F069FB236B07F18042A2
:102EB000013A03EB820727F00707B5B34FF0000C88
:102EC000BCF10F0F0BD815F80C2004EB0C0383F8A2
:102ED000342015F80C3013B10CF1010CF0E700238D
:102EE00084F84330372E00D93726E662E6640025A1
:102EF0002565201DFFF7F5FA04F11800FFF7F1FA38
:102F00002461C6F13806A6616462656584F858508C
:102F10004A464146384601F0FFF82060BAF1000FFA
:102F200001D0CAF80040BDE8F087002384F83430AF
:102F3000D8E7000038B5002407E004EB84029300D2
:102F40000E481844FFF7C2FA0134372CF5D90C4D5E
:102F50002846FFF7BBFA0B4C2046FFF7B7FA0A48A2
:102F6000FFF7B4FA0948FFF7B1FA0948FFF7AEFADC
:102F7000084B1D60084B1C6038BD00BF38020020A4
:102F8000AC060020C0060020E40600201007002048
:102F9000FC060020300200203402002010B5044658
:102FA00001F0E8F8224A136801331360214B1B68D3
:102FB0005BB1214B1B686BB91E4B1B68DA6AE36A75
:102FC0009A4207D81B4B1C6004E01A4B1C60136824
:102FD000012B29D0194A1368013313606364E06A36
:102FE000174B1B68984201D9154B186000EB800005
:102FF000211D144B03EB8000FFF776FA01F0DCF89B
:103000000D4B1B687BB10B4B1B68DA6AE36A9A4273
:1030100009D24FF0E0234FF08052C3F8042DBFF3E4
:103020004F8FBFF36F8F10BDFFF784FFD2E700BF54
:10303000980600202C020020F8060020A40600209C
:10304000A80600203802002010B5044690F8593038
:1030500063B1012B11D0022B0ED04FF0500383F33C
:103060001188BFF36F8FBFF34F8FFEE7006B00F047
:10307000D7FF204600F0D4FF10BD00F0D1FFFBE7E2
:103080000F4B1B68D3B110B501F074F80D4BDB6822
:10309000DC68201DFFF74CFA0B4A1368013B1360F4
:1030A000074A1368013B136001F086F82046FFF7DA
:1030B000CBFF034B1B68002BE6D110BD704700BF50
:1030C0009C060020100700209806002008B5FFF796
:1030D000D7FF074B1B68012BF9D94FF0E0234FF0C6
:1030E0008052C3F8042DBFF34F8FBFF36F8FEEE70D
:1030F0003802002070B504460D46174B1E68174B6A
:1031000018680430FFF714FAB4F1FF3F0DD03444CF
:10311000124B1B685C60A64210D9114B18680F4B0C
:1031200019680431FFF7EBF970BD002DEFD00B4BA0
:10313000196804310B48FFF7D7F9F5E70A4B18680F
:10314000064B19680431FFF7DAF9084B1B68A342F4
:10315000EAD9064B1C60E7E7240700202C02002078
:1031600034020020FC06002030020020D806002097
:1031700030B587B00B9C7CB10C9DB5B15C25049536
:10318000049D5C2D1AD04FF0500383F31188BFF3D8
:103190006F8FBFF34F8FFEE74FF0500383F311881B
:1031A000BFF36F8FBFF34F8FFEE74FF0500383F3F2
:1031B0001188BFF36F8FBFF34F8FFEE7049D0C9D07
:1031C0002C63022485F8594000240394029505AC31
:1031D00001940A9C0094FFF759FE0C98FFF7DEFE5D
:1031E000059807B030BD2DE9F04385B00746884605
:1031F00014461E46900000F095FE00B381465C2008
:1032000000F090FE0546B0B1C0F83090E5B1002363
:1032100085F85930039302950D9B01930C9B009305
:103220003346224641463846FFF730FE2846FFF730
:10323000B5FE012005E0484600F0F2FEE6E74FF05B
:10324000FF3005B0BDE8F0834FF0FF30F9E7000034
:1032500010B588B000240594069407AA06A905A80D
:1032600000F0E4FD059B0293069B01930094234626
:10327000079A18491848FFF77BFF184B186040B1B0
:1032800000F00AFC012806D0B0F1FF3F18D008B0CA
:1032900010BD0020F6E74FF0500383F31188BFF311
:1032A0006F8FBFF34F8F0E4B4FF0FF321A600D4BF5
:1032B00001221A600C4B00221A6000F0F5FFE6E7CD
:1032C0004FF0500383F31188BFF36F8FBFF34F8F1D
:1032D000FEE700BF30570008CD300008D4060020BC
:1032E000D8060020F806002024070020024A1368B0
:1032F00001331360704700BFA0060020014B18681F
:10330000704700BF24070020034618B12BB103F11A
:1033100034007047054B1B68F8E74FF0500383F308
:103320001188BFF36F8FBFF34F8FFEE72C02002091
:10333000F8B53A4B1B68002B69D1394B1D68013534
:103340001D60C5B9374B1B681B6843B14FF0500374
:1033500083F31188BFF36F8FBFF34F8FFEE7314ABE
:103360001168314B186810601960304A13680133D6
:103370001360FFF775FD2E4B1B68AB423DD900274C
:103380002C4B1B68DB6A03EB83039A002A4B9B5888
:10339000012B00D90127294B1B68002B3CD00127AA
:1033A0003AE001271F4B1B681B6843B31D4B1B688A
:1033B000DB68DC6863689D4226D3261D3046FFF734
:1033C000B7F8A36A1BB104F11800FFF7B1F8E36A7C
:1033D0001B4A1268934201D9194A136003EB830315
:1033E0009A00314614481044FFF77EF8E26A114B08
:1033F0001B68DB6A9A42D4D2D4E70027D2E70C4B91
:103400004FF0FF321A60BBE7094A1360B8E70D4A74
:1034100013680133136000273846F8BDA00600206A
:10342000240700203002002034020020DC060020A7
:10343000D80600202C020020380200202807002097
:10344000A8060020E006002038B5354B1B6843B9BC
:103450004FF0500383F31188BFF36F8FBFF34F8F8B
:10346000FEE700F087FE2E4B1A68013A1A601B68CF
:10347000002B4FD12B4B1B680BB900244BE00024D1
:10348000294B1B681BB3284BDB68DC6804F1180070
:10349000FFF74EF8251D2846FFF74AF8E06A234B50
:1034A0001B68984201D9214B186000EB8000294627
:1034B0001F4B03EB8000FFF717F8E26A1D4B1B68F8
:1034C000DB6A9A42DCD31C4B01221A60D8E70CB1AC
:1034D000FFF7C6FC194B1C6884B9174B1C68D4B1A4
:1034E0004FF0E0234FF08052C3F8042DBFF34F8F0D
:1034F000BFF36F8F01240EE0013C07D0FFF718FFE8
:103500000028F9D00C4B01221A60F5E70B4B002282
:103510001A60E2E7002400F04FFE204638BD00BFED
:10352000A006002098060020E4060020A80600203F
:10353000380200202C02002028070020E00600208E
:1035400010B5A8B10446104B1B6843B14FF05003AF
:1035500083F31188BFF36F8FBFF34F8FFEE7FFF741
:10356000C5FE00212046FFF7C5FDFFF76DFF48B9F6
:103570004FF0E0234FF08052C3F8042DBFF34F8F7C
:10358000BFF36F8F10BD00BFA00600201F4B1B684C
:103590001BB11F4B01221A6070471D4B00221A609D
:1035A0001C4B1B6803EB83018A001B498A585AB9DC
:1035B0000BB1013BF6E74FF0500383F31188BFF3E3
:1035C0006F8FBFF34F8FFEE703EB830082000A4447
:1035D00050684068506003EB830C4FEA8C0208325D
:1035E000114488420BD003EB830291000A4A0A443B
:1035F0005268D168094A1160064A136070474068F2
:1036000062469100044A0A445060ECE7A00600209C
:1036100028070020A8060020380200202C020020E5
:1036200058B110B50C46094A11681831FEF767FF0A
:1036300001212046FFF75EFD10BD4FF0500383F3DC
:103640001188BFF36F8FBFF34F8FFEE72C0200206E
:1036500038B570B10D4614460A4A11681831FEF7A4
:1036600043FF0CB14FF0FF3521462846FFF742FDDE
:1036700038BD4FF0500383F31188BFF36F8FBFF352
:103680004F8FFEE72C02002038B5C368DC6824B3F6
:1036900004F118052846FEF74BFF184B1B682BBB9F
:1036A000251D2846FEF744FFE06A154B1B6898422B
:1036B00001D9134B186000EB80002946114B03EB36
:1036C0008000FEF711FFE26A0F4B1B68DB6A9A422B
:1036D00011D901200D4B186038BD4FF0500383F312
:1036E0001188BFF36F8FBFF34F8FFEE7294608485D
:1036F000FEF7FAFEE7E70020EEE700BFA006002095
:10370000A8060020380200202C02002028070020F4
:10371000E4060020034B1B680360034B1B684360F7
:10372000704700BFDC06002024070020F8B5C8B1B0
:103730000C460546F9B100F01DFD1B4B19686B687E
:10374000C81A2268B2F1FF3F26D0184E36682F689B
:10375000B74201D08B4224D9824215D8002323607E
:1037600001241AE04FF0500383F31188BFF36F8FE9
:10377000BFF34F8FFEE74FF0500383F31188BFF381
:103780006F8FBFF34F8FFEE75B1A13442360284609
:10379000FFF7C0FF002400E0002400F00DFD2046EC
:1037A000F8BD0124F9E700BF24070020DC06002053
:1037B000014B01221A60704728070020054B1B6847
:1037C00033B1054B1B680BB10020704702207047D6
:1037D00001207047F8060020A006002000283ED0F7
:1037E00038B50446C36A204A1268D26A93422ED280
:1037F0008269002A05DB1C4A1268D26AC2F13802CB
:103800008261616903EB8303184A02EB83039942E7
:1038100005D0154B1B68DB6AE362012038BD251D0E
:103820002846FEF785FE104B1B68D86AE062104BF5
:103830001B68984201D90E4B186000EB80002946A6
:103840000A4B03EB8000FEF74FFE0120E6E7C26C57
:10385000054B1B68DB6A9A4203D30020DEE7002099
:1038600070470120DAE700BF2C0200203802002058
:10387000A806002000283BD038B504461E4B1B6824
:10388000834208D04FF0500383F31188BFF36F8F4A
:10389000BFF34F8FFEE7036D43B94FF0500383F33F
:1038A0001188BFF36F8FBFF34F8FFEE7013B0365B6
:1038B000C16AC26C91421DD00BB1002038BD051DFC
:1038C0002846FEF735FEE06CE062C0F13803A361E4
:1038D0000A4B1B68984201D9084B186000EB800026
:1038E0002946074B03EB8000FEF7FEFD0120E5E7CC
:1038F000002070470020E1E72C020020A8060020ED
:1039000038020020002846D038B50446036D43B97C
:103910004FF0500383F31188BFF36F8FBFF34F8FC6
:10392000FEE7C26C8A4200D20A46E16A914201D0A7
:10393000012B00D038BD184B1B68A34222D0E26295
:10394000A369002B02DBC2F13802A261626901EBBC
:103950008101124B03EB81018A42EBD1251D2846E0
:10396000FEF7E6FDE06A0E4B1B68984201D90C4B4E
:10397000186000EB80002946084B03EB8000FEF73F
:10398000B3FDD7E74FF0500383F31188BFF36F8F78
:10399000BFF34F8FFEE770472C0200203802002053
:1039A000A8060020054B1B6823B1044B1A68136D51
:1039B00001331365014B1868704700BF2C020020CB
:1039C000064B1A6813682BB90123036023B9D36827
:1039D000186870470023F8E7002070472C07002084
:1039E00008B54160006191420CD8D21A83699A42AD
:1039F00001D3012008BD011D094B1868FEF77FFDAA
:103A00000020F7E79A4201D2994206D2011D054BE8
:103A10001868FEF774FD0020ECE70120EAE700BF1C
:103A2000300700202C07002030B583B000F0A2FB47
:103A3000114B1B681BB100F0BFFB03B030BD0F4D35
:103A40002846FEF743FD0E4C2046FEF73FFD0D4B8A
:103A50001D600D4B1C60002300930C4B0C4A102181
:103A60000A20FEF773FE044B18600028E3D00949D2
:103A7000FFF7B8F9DFE700BF50080020D4070020A7
:103A8000E80700202C070020300700200008002055
:103A9000340700203857000810B588B0FFF7C4FF7E
:103AA000124B1B68CBB100240594069407AA06A903
:103AB00005A800F0C7F9059B0293069B019302231A
:103AC00000932346079A0A490A48FFF751FB0A4B1D
:103AD000186010B1012008B010BD4FF0500383F3FF
:103AE0001188BFF36F8FBFF34F8FFEE750080020A0
:103AF00040570008FD3D000854080020B8B19C461E
:103B000003461848006858B300B585B0009101928B
:103B1000029305291CDCFFF751FE022810D0002378
:103B20001A4669460F480068FEF79CFE15E04FF004
:103B3000500383F31188BFF36F8FBFF34F8FFEE7FE
:103B40000023069A694607480068FEF78BFE04E0EA
:103B5000002362466946FEF749FF05B05DF804FBA5
:103B6000002070475008002070B582B01B4B1B68C6
:103B70001A6862B3DB681E68DC68251D2846FEF7FC
:103B8000D7FC236A2046984794F8283013F0040F96
:103B9000ECD0A36933449E4207D263602461294676
:103BA0000E4B1868FEF7ABFCE0E7002100910B46D6
:103BB00032462046FFF7A2FF0028D7D14FF050032E
:103BC00083F31188BFF36F8FBFF34F8FFEE7044A73
:103BD000106802490860136002B070BD2C07002015
:103BE0003007002038B50546FFF788FB0446074B31
:103BF0001B68834205D800232B60044B1C602046C1
:103C000038BDFFF7B1FF01232B60F6E7FC0700206A
:103C100070B582B006460D4617490968C968CC6878
:103C2000201DFEF785FC94F828C01CF0040F08D175
:103C30002CF0010C84F828C0236A2046984702B073
:103C400070BDA16933462A4631442046FFF7C8FEBD
:103C50000028F1D0002100910B4632462046FFF7A4
:103C60004DFF0028E8D14FF0500383F31188BFF3D4
:103C70006F8FBFF34F8FFEE72C07002070B582B027
:103C800006460C46FFF732FB01A8FFF7ABFF019B8E
:103C900033BB05460CB9B04219D224B1124A12689E
:103CA0001268DAB901242246711B104B1868FFF71D
:103CB000ADF8FFF7C9FBA8B94FF0E0234FF08052F1
:103CC000C3F8042DBFF34F8FBFF36F8F0AE0FFF7E8
:103CD000BBFB29463046FFF79BFF03E01C46E2E7AB
:103CE000FFF7B2FB02B070BD300700205008002083
:103CF00010B588B002E0049B002B0FDA002204A963
:103D00003D4B1868FEF7D9FE002873D0049B002BAA
:103D1000F1DA07990698059B9847ECE7069C6369DA
:103D200013B1201DFEF704FC03A8FFF75BFF049B03
:103D3000092BE3D8DFE803F005050530375005050A
:103D4000303794F8283043F0010384F82830059B7D
:103D5000A169024619442046FFF742FE0028CDD053
:103D6000236A2046984794F8283013F0040FC5D0F2
:103D7000A269002100910B46059802442046FFF7F6
:103D8000BDFE0028BAD14FF0500383F31188BFF372
:103D90006F8FBFF34F8FFEE794F8283023F00103B5
:103DA00084F82830AAE794F8283043F0010384F817
:103DB00028300599A16131B10346024601442046ED
:103DC000FFF70EFE9AE74FF0500383F31188BFF31D
:103DD0006F8FBFF34F8FFEE794F8283013F0020F78
:103DE00004D023F0010384F8283087E7204600F050
:103DF00017F983E708B010BD5008002000B583B064
:103E000001A8FFF7DDFD0199FFF738FFFFF770FF0D
:103E1000F6E708B54FF0E0231B69FFF7CFFC012858
:103E200000D108BD00F016FAFBE70000034B036069
:103E3000034B0B6080231360704700BF580A0020BB
:103E400058080020034B0360034B0B604FF4807352
:103E500013607047B40E0020B40A0020124A12F01A
:103E6000070F1ED0D11D21F00701C1F57053134477
:103E70000A460E480260002141601344083B23F0CB
:103E800007030B48036059601960991A5160136069
:103E9000084B1960084B1960084B4FF000421A603C
:103EA00070474FF47053E4E7140F0020284B0020B4
:103EB000100F00201C4B0020184B0020144B00203A
:103EC000164B1A461B688342FBD3516802EB010C68
:103ED000844509D0416800EB010C634509D00360BB
:103EE000904219D0106070474068014451601046FC
:103EF000F0E710B40A4C2468A3420BD05B68194465
:103F0000416013681B680360904200D010605DF848
:103F1000044B70470460F7E7704700BF284B002050
:103F2000100F002070B50546FFF7E0F9364B1B680F
:103F3000A3B1364B1B681D424ED135B1083515F083
:103F4000070F02D025F007050835002D46D0304B6D
:103F50001B68AB4251D32F4A146804E0FFF77EFF81
:103F6000E7E722461C466368AB4202D22368002B77
:103F7000F7D1254B1B68A34241D016680836236849
:103F8000136063685B1B102B10D9601910F0070FCA
:103F900008D04FF0500383F31188BFF36F8FBFF346
:103FA0004F8FFEE743606560FFF78AFF626818493C
:103FB0000B689B1A0B60184909688B4201D216499D
:103FC0000B60124B1B681343636000232360134A8A
:103FD00013680133136002E0002600E00026FFF7BB
:103FE00033FA16F0070F0CD04FF0500383F311880B
:103FF000BFF36F8FBFF34F8FFEE70026EFE700267A
:10400000EDE7304670BD00BF100F0020144B0020BC
:10401000184B0020284B00201C4B0020204B002078
:10402000002834D038B50446A0F1080550F8043C07
:10403000174A1268134208D14FF0500383F31188D6
:10404000BFF36F8FBFF34F8FFEE750F8081C41B1ED
:104050004FF0500383F31188BFF36F8FBFF34F8F7F
:10406000FEE723EA020340F8043CFFF73FF954F867
:10407000041C084A13680B4413602846FFF720FF0E
:10408000054A136801331360FFF7DEF938BD704746
:10409000144B0020184B0020244B002082B000233A
:1040A00001930D4B1B68B3F1FF3F08D04FF0500355
:1040B00083F31188BFF36F8FBFF34F8FFEE74FF08D
:1040C000500383F31188BFF36F8FBFF34F8F019BB2
:1040D000002BFCD002B07047100000200848006898
:1040E000006880F308884FF0000080F3148862B6FF
:1040F00061B6BFF34F8FBFF36F8F00DF00BF0000CB
:1041000008ED00E0DFF80C00016841F47001016087
:104110007047000088ED00E04FF0807340F8043CE9
:1041200021F0010140F8081C054B40F80C3C40F818
:10413000202C6FF0020340F8243C4438704700BF45
:104140009D4000080000000000000000000000008A
:10415000074B19680868B0E8F04F80F30988BFF38F
:104160006F8F4FF0000080F311887047AFF300802D
:104170002C0200204FF0500383F31188BFF36F8FA0
:10418000BFF34F8F0B4A136801331360012B00D02C
:1041900070474FF0E023D3F8043D13F0FF0FF7D042
:1041A0004FF0500383F31188BFF36F8FBFF34F8F2E
:1041B000FEE700BF10000020094B1B6843B94FF019
:1041C000500383F31188BFF36F8FBFF34F8FFEE768
:1041D000013B034A13600BB983F31188704700BF9A
:1041E000100000200000000000000000000000009F
:1041F000EFF30980BFF36F8F154B1A681EF0100F95
:1042000008BF20ED108A20E9F04F10602DE9090069
:104210004FF0500080F31188BFF34F8FBFF36F8FC3
:10422000FFF7B4F94FF0000080F3118809BC19685A
:104230000868B0E8F04F1EF0100F08BFB0EC108A0D
:1042400080F30988BFF36F8F704700BFAFF3008022
:104250002C02002008B54FF0500383F31188BFF300
:104260006F8FBFF34F8FFFF763F828B14FF0E02354
:104270004FF08052C3F8042D002383F3118808BD4A
:104280004FF0E022002313619361054B1B68054941
:10429000A1FB03139B09013B536107231361704783
:1042A0000C000020D34D62104FF0E023D3F8002D16
:1042B0003D4B9A421CD04FF0E023D3F8002D3B4BEE
:1042C0009A421ED030B583B0394B1A78D2B20192DF
:1042D000FF221A701B78DBB28DF803309DF8033093
:1042E00003F05003334A1370334B07221A601BE06C
:1042F0004FF0500383F31188BFF36F8FBFF34F8FDD
:10430000FEE74FF0500383F31188BFF36F8FBFF3C5
:104310004F8FFEE7284A1368013B13609DF8033076
:104320005B00DBB28DF803309DF8033013F0800F93
:10433000F0D1214B1B68032B08D04FF0500383F3BF
:104340001188BFF36F8FBFF34F8FFEE71B021A4A2E
:10435000136003F4E0631360019BDBB2144A137033
:104360004FF0E024D4F8203D43F47003C4F8203D1E
:10437000D4F8203D43F07043C4F8203DFFF780FFA0
:1043800000250E4B1D60FFF7BDFED4F8343F43F00F
:104390004043C4F8343FFFF7A1FEFFF7F7F8FFF7FB
:1043A0007DFE284603B030BD71C20F4170C20F417F
:1043B00000E400E0304B0020344B002010000020CF
:1043C000EFF305830F2B0FD9114A9B5CDBB2114A27
:1043D00012789A4208D94FF0500383F31188BFF343
:1043E0006F8FBFF34F8FFEE74FF0E023D3F80C3D04
:1043F00003F4E063084A1268934208D94FF050036F
:1044000083F31188BFF36F8FBFF34F8FFEE77047C1
:10441000F0E300E0304B0020344B002010B50346A1
:104420000C4A0D490D48006840B10C48006803442F
:10443000521A934206D8094A136010BD0748084C27
:104440000460F2E700F062F80C2303604FF0FF30E5
:10445000F3E700BF0000022000040000384B0020FA
:10446000504B002070B50C461646002506E0AFF311
:104470000080214601F8010B01350C46B542F6DB00
:10448000304670BD70B50C461646002504E014F8A1
:10449000010BFCF785F90135B542F8DB304670BDFC
:1044A0004FF0FF3070474FF400534B6000207047CF
:1044B0000120704700207047DFF834D0FDF7FCFF83
:1044C0000C480D490D4A002302E0D458C45004336F
:1044D000C4188C42F9D30A4A0A4C002301E0136045
:1044E0000432A242FBD300F017F8FCF74DFA7047F4
:1044F000000002200000002078000020F057000893
:10450000780000204C4B0020FEE70000014B1868AB
:10451000704700BF1400002070B50D4D0D4C641B9A
:10452000A4100026A64209D10B4D0C4C01F032F824
:10453000641BA4100026A64205D170BD55F8043BAB
:1045400098470136EEE755F8043B98470136F2E705
:10455000E8570008E8570008E8570008EC5700083B
:104560000A44914200F1FF3300D1704710B511F8B1
:10457000014B03F8014F9142F9D110BD02440346AB
:10458000934200D1704703F8011BF9E70FB40A4BBF
:1045900013B51C6824B1A36913B9204600F05EFA74
:1045A00005AB049AA1680193204600F067FC02B0B5
:1045B000BDE8104004B070471400002070B50E46EE
:1045C000054618B183690BB900F048FAAB69AC68CD
:1045D00013B9284600F042FA2C4B9C4220D16C685B
:1045E000636EDB0705D4A389980502D4A06D00F0A3
:1045F000D3FAA38919071DD52369DBB1013EA3684E
:1046000016F8011F013BA36039BB002B38DA2246A4
:104610000A21284600F048F8013011D00A2511E09F
:104620001B4B9C4201D1AC68DAE71A4B9C4208BF95
:10463000EC68D5E72146284600F088F80028DDD050
:104640004FF0FF35636EDA0705D4A3899B0502D4CA
:10465000A06D00F0A2FA284670BD002B04DAA26912
:104660009A4206DC0A2904D023685A1C2260197079
:10467000C5E72246284600F017F80130BFD1DFE732
:1046800023680A255A1C22601D70DBE76C5700085E
:104690008C5700084C570008024B01461868FFF77A
:1046A0008DBF00BF14000020F8B50E461446054625
:1046B00018B183690BB900F0D1F9214B9C422BD181
:1046C0006C68A369A360A3891A072FD523696BB30C
:1046D00023692068C01A6369F6B28342374604DC56
:1046E0002146284600F026F930BBA368013BA360B1
:1046F00023685A1C22601E7063690130834204D013
:10470000A389DB0706D50A2E04D12146284600F0EE
:1047100011F988B93846F8BD0A4B9C4201D1AC6802
:10472000CFE7094B9C4208BFEC68CAE72146284600
:1047300000F00CF80028CBD04FF0FF37EAE700BFBD
:104740006C5700088C5700084C570008324B70B566
:104750001D6806460C4625B1AB6913B9284600F022
:104760007DF92E4B9C420FD16C68A389B4F90C20C3
:1047700019072CD4DD0611D40923336042F040031D
:10478000A3814FF0FF303EE0254B9C4201D1AC6845
:10479000EBE7244B9C4208BFEC68E6E7580712D5CC
:1047A000616B41B104F14403994202D0304600F0FC
:1047B0005BFA00236363A38923F02403A38100230E
:1047C000636023692360A38943F00803A3812369FD
:1047D0004BB9A38903F42073B3F5007F03D02146BE
:1047E000304600F001FAA089B4F90C2010F0010362
:1047F0000AD00023A36063695B42A361236943B9C4
:1048000010F08000BAD170BD810758BF6369A36002
:10481000F4E70020F7E700BF140000206C57000801
:104820008C5700084C5700088A892DE9F04105464D
:1048300010070C4658D44B68002B05DC0B6C002B82
:1048400002DC0020BDE8F081E66A002EF9D00023EA
:1048500012F480522F682B6032D0606DA3895A0702
:1048600005D56368C01A636B0BB1236CC01A0023B3
:104870000246E66A216A2846B047431CA38906D14E
:1048800029681D292CD82A4ACA40D60728D50022D3
:104890006260D9042269226004D5421C01D12B68D0
:1048A00003B96065616B2F600029CAD004F144032D
:1048B000994202D0284600F0D7F900206063C1E792
:1048C000216A01232846B047411CC7D12B68002B21
:1048D000C4D01D2B01D0162B01D12F60B1E7A389C5
:1048E00043F04003A381ADE70F69002FA9D09307E0
:1048F0000E6808BF4B690F6018BF0023A6EB0708BE
:104900008B60B8F1000F9CDD216AA66A43463A46E7
:104910002846B047002806DCA38943F04003A38162
:104920004FF0FF308EE70744A8EB0008E9E700BF2F
:104930000100402038B50B6905460C4613B9002527
:10494000284638BD18B183690BB900F087F8144BBD
:104950009C421BD16C68B4F90C30002BEFD0626E16
:10496000D00704D4990502D4A06D00F015F92846AB
:104970002146FFF759FF636EDA070546E0D4A389A5
:104980009B05DDD4A06D00F008F9D9E7054B9C42EA
:1049900001D1AC68DFE7044B9C4208BFEC68DAE762
:1049A0006C5700088C5700084C570008002310B5BE
:1049B0000446C0E90033C0E9043383608181436663
:1049C000C2818361194608225C30FFF7D7FD054B91
:1049D0006362054BA362054BE362054B24622363CC
:1049E00010BD00BF25540008475400087F5400083C
:1049F000A3540008014900F0AFB800BF35490008D2
:104A000070B568224D1E55430E4605F1740100F045
:104A100097F9044640B10021C0E900160C30A060AF
:104A200005F16802FFF7AAFD204670BD014800F0BD
:104A3000B3B800BF3D4B0020014800F0AEB800BF46
:104A40003D4B0020014800F0A7B800BF3E4B0020BE
:104A5000014800F0A2B800BF3E4B002010B504464C
:104A6000FFF7F0FFA3691BB1BDE81040FFF7F0BFEF
:104A7000C4E912332365134B134A1B68A262A34295
:104A800004BF0123A361204600F020F860602046A7
:104A900000F01CF8A060204600F018F80022E0604A
:104AA00004216068FFF782FFA06801220921FFF757
:104AB0007DFFE06802221221FFF778FF0123A36146
:104AC000D2E700BF48570008F5490008F8B5074687
:104AD000FFF7ACFF1E4B1E68B36913B93046FFF7F2
:104AE000BDFF4836D6E90134013B03D533680BB32B
:104AF0003668F7E7B4F90C50D5B9164BE36004F10A
:104B00005800656600F047F8FFF796FFC4E90155C5
:104B1000C4E904552560A5610822294604F15C001A
:104B2000FFF72CFDC4E90D55C4E912552046F8BD28
:104B30006834D9E704213846FFF762FF0446306045
:104B40000028D5D1FFF778FF0C233B60EEE700BFCC
:104B5000485700080100FFFF2DE9F8430646884644
:104B600000F148040027D4E90195B9F1010905D500
:104B70002468002CF7D13846BDE8F883AB89012BB7
:104B800007D9B5F90E30013303D029463046C04766
:104B900007436835E9E770477047704770B50E46C0
:104BA000B1F90E10002996B014461D4608DAB6F980
:104BB0000C3000222A601A0610D44FF480630EE0F5
:104BC0006A4600F095FC0028F1DB019A02F470427D
:104BD000A2F500535A425A412A60EEE740230020D2
:104BE000236016B070BD00008B8973B59D07064623
:104BF0000C4607D504F14703236023610123636159
:104C000002B070BD01AB6A46FFF7C8FF00990546C8
:104C1000304600F095F848B9B4F90C309A05EFD455
:104C200023F0030343F00203A381E3E70D4BB362D8
:104C3000A389206043F08003A381009B6361019BF3
:104C400020615BB1B4F90E10304600F063FC28B16E
:104C5000A38923F0030343F00103A381A089054343
:104C6000A581CDE7F549000837B5002944D051F8B2
:104C7000043C0190002BA1F10404B8BFE41800F03B
:104C80006BFC1E4A0198136833B96360146003B06B
:104C9000BDE8304000F066BCA34208D92568611920
:104CA0008B4201BF19685B6849192160EDE71A461C
:104CB0005B680BB1A342FAD911685518A5420BD114
:104CC000246821445418A3421160E0D11C685B6839
:104CD000536021441160DAE702D90C230360D6E760
:104CE000256861198B4204BF19685B68636004BF63
:104CF000491921605460CAE703B030BD404B002021
:104D000070B50E4E0C463168054611B900F07AFBBD
:104D100030602146284600F075FB431C0AD0C41CB5
:104D200024F00304A04207D0211A284600F06AFBB1
:104D3000013001D14FF0FF34204670BD444B0020BC
:104D40002DE9F041CD1C25F0030508350C2D38BFA9
:104D50000C25002D074601DBA94205D90C233B6039
:104D600000263046BDE8F0812E4E00F0F5FB33689A
:104D70001C4634BB29463846FFF7C2FF431C044695
:104D80004DD134682646002E40D12368314638463E
:104D900004EB030800F036FB80453AD12168033567
:104DA0006D1A25F0030508350C2D38BF0C25294652
:104DB0003846FFF7A5FF01302BD023682B44236032
:104DC0000EE02268521B1ED40B2A16D96119A34289
:104DD000256018BF5960636808BF316062514B603D
:104DE000384604F10B0600F0BDFB26F00706231D34
:104DF000F21AB6D09B1BA350B3E76268A3420CBF64
:104E000032605A60ECE723466468B2E7344676685D
:104E1000B9E70C233B60384600F0A4FBA1E725600E
:104E2000DEE700BF404B00209368013B002B10B42D
:104E3000936008DA9469A34201DB0A2903D15DF883
:104E4000044BFFF731BC1368581C106019700846FA
:104E50005DF8044B7047F8B506460F461446D51862
:104E6000AC4201D1002007E014F8011B3A4630465D
:104E7000FFF7DAFF431CF3D1F8BD00002DE9F04F36
:104E80000D469DB014469846064618B183690BB985
:104E9000FFF7E4FD894B9D421BD175686B6ED90706
:104EA00005D4AB899A0502D4A86DFFF775FEAB89CE
:104EB0001B0701D52B69EBB929463046FFF746FCA5
:104EC000C0B16B6EDC070ED54FF0FF301DB0BDE8F2
:104ED000F08F7B4B9D4201D1B568DFE7794B9D4256
:104EE00008BFF568DAE7AB899805EDD4A86DFFF740
:104EF00054FEE9E70023099320238DF82930CDF8EB
:104F00000C803023DFF8C0818DF82A304FF0010982
:104F100023469A4613F8012B0AB1252AF9D1BAEB98
:104F2000040B0BD05B46224629463046FFF793FF21
:104F3000013000F0AA80099A5A4409929AF8003088
:104F4000002B00F0A28000234FF0FF32CDE90523B3
:104F50000AF1010A049307938DF853301A935446CB
:104F6000052214F8011B5848FBF73AF9049AD8B9FE
:104F7000D10644BF20238DF85330130744BF2B23A1
:104F80008DF853309AF800302A2B15D0079A5446E2
:104F900000204FF00A0C214611F8013B303B092B51
:104FA0004ED9B0B1079214E0A0EB080309FA03F35D
:104FB00013430493A246D2E7039B191D1B68039178
:104FC000002BBBBF5B4242F0020207930793B8BFBE
:104FD000049223782E2B0CD163782A2B35D1039B96
:104FE0001A1D1B680392002BB8BF4FF0FF33023429
:104FF0000593DFF8E4A0217803225046FBF7F0F890
:1050000040B14023A0EB0A0003FA00F0049B0343E5
:105010000134049314F8011B2C488DF82810062243
:10502000FBF7DEF800283FD0294B1BBB039B07335F
:1050300023F0070308330393099B3B44099367E775
:105040000CFB02320C460120A5E700230134059336
:1050500019464FF00A0C204610F8012B303A092A65
:1050600003D9002BC5D00591C3E70CFB01210446F1
:105070000123F0E703AB00932A46164B04A9304600
:10508000AFF300800746781CD6D16B6ED90705D4E4
:10509000AB899A0502D4A86DFFF77FFDAB895B064B
:1050A0003FF512AF099811E703AB00932A46094B6D
:1050B00004A9304600F080F8E4E700BF6C57000810
:1050C0008C5700084C570008AC570008B65700082A
:1050D00000000000574E0008B25700082DE9F047C5
:1050E000164699468A680B69DDF820809342B8BF5E
:1050F0001346336091F8432007460C460AB101334A
:1051000033602368990642BF3368023333602568F1
:1051100015F0060506D104F1190AE36832689B1AF6
:10512000AB4226DC94F84320131E226818BF0123EB
:1051300092062BD404F1430249463846C047013059
:105140001ED02368E568326803F00603042B08BF0D
:10515000AD1AA36822690CBF25EAE57500259342C4
:10516000C4BF9B1AED1800261A34B5421AD100208C
:1051700008E00123524649463846C047013003D172
:105180004FF0FF30BDE8F0870135C6E7E1185A1C43
:10519000302081F84300224494F8451082F84310EF
:1051A0000233C7E70123224649463846C04701304B
:1051B000E6D00136D9E700002DE9FF470F7E0C9DB0
:1051C000782F914680460C469A4601F1430207D853
:1051D000622F0AD8002F00F0D880582F00F0A3804B
:1051E00004F1420584F842703AE0A7F16303152BFD
:1051F000F6D801A151F823F0515200086552000879
:10520000E1510008E1510008E1510008E1510008B6
:1052100065520008E1510008E1510008E151000821
:10522000E1510008715300089552000853530008DB
:10523000E1510008E151000893530008E1510008D2
:1052400095520008E1510008E15100085B53000845
:105250002B681A1D1B682A6004F1420584F842304D
:105260000123A3E020682968060601F104030AD59A
:105270000E682B60002E03DA2D23764284F843302B
:105280005E480A2319E00E682B6010F0400F18BF2B
:1052900036B2EFE72B682068191D2960010601D599
:1052A0001E6802E04606FBD51E8854486F2F0CBFCF
:1052B00008230A23002184F843106568A560002DA7
:1052C000A2BF216821F0040121600EB9002D4DD04C
:1052D0001546B6FBF3F103FB1167C75D05F8017DC9
:1052E0003746BB420E46F4D9082B0BD12368DE07A4
:1052F00008D5236961689942DEBF302305F8013C77
:1053000005F1FF35521B2261CDF800A04B4603AAE0
:1053100021464046FFF7E2FE01304CD14FF0FF300E
:1053200004B0BDE8F087354881F8457029682368E6
:1053300051F8046B29601D0614D5DF0744BF43F004
:10534000200323601EB9236823F020032360102369
:10535000B0E7236843F0200323607823284884F8CB
:105360004530E3E7590648BFB6B2E6E71546BBE766
:105370002B6826686169181D286035061B6801D5F1
:10538000196002E07006FBD51980002323611546E1
:10539000BAE72B681A1D2A601D686268002128463A
:1053A000FAF71EFF08B1401B6060636823610023A9
:1053B00084F84330A8E723692A4649464046D04747
:1053C0000130ABD023689B0713D4E068039B98425D
:1053D000B8BF1846A4E70123324649464046D047A5
:1053E00001309BD00135E36803995B1AAB42F2DCD4
:1053F000EBE7002504F11906F5E700BFBD570008EB
:10540000CE57000838B5064D0023044608462B60E9
:10541000FFF704F8431C02D12B6803B1236038BDA9
:10542000484B002010B50C46B1F90E1000F0A0F862
:105430000028ABBF636DA3891B1823F48053ACBF56
:105440006365A38110BD2DE9F0411F468B89DB0503
:1054500005460C46164605D5B1F90E10022300226A
:1054600000F068F8A389B4F90E1023F48053A381E7
:1054700032463B462846BDE8F04100F017B810B56B
:105480000C46B1F90E1000F055F8431CA38915BF66
:10549000606523F4805343F48053A38118BFA38134
:1054A00010BDB1F90E1000F013B8000038B5074D6B
:1054B00004460846114600222A601A46FEF7E2FF1B
:1054C000431C02D12B6803B1236038BD484B002038
:1054D00038B5064D0023044608462B60FEF7E0FF72
:1054E000431C02D12B6803B1236038BD484B002018
:1054F00038B5074D00230446084611462B60FEF7D9
:10550000D2FF431C02D12B6803B1236038BD00BF1A
:10551000484B002038B5064D0023044608462B6052
:10552000FEF7C6FF431C02D12B6803B1236038BDD0
:10553000484B002038B5074D044608461146002266
:105540002A601A46FEF7B6FF431C02D12B6803B14E
:10555000236038BD484B00200148FFF71DBB00BF4A
:105560003C4B00200148FFF718BB00BF3C4B00201C
:1055700038B5074D04460846114600222A601A46EF
:10558000FEF770FF431C02D12B6803B1236038BDC6
:10559000484B0020F8B500BFF8BC08BC9E467047D9
:0C55A000F8B500BFF8BC08BC9E46704780
:1055AC007461736B332074616B652073656D61700E
:1055BC00686F7265200D0000436F7553656D6F2029
:1055CC00636F756E7420697320256C640D0A00007E
:1055DC006469646E742067657420746865207365F3
:1055EC006D6170686F72650D000000007461736B03
:1055FC00352074616B652073656D6170686F7265C1
:10560C00200D00007461736B362074616B65207320
:10561C00656D6170686F7265200D00002D2D2D2D4C
:10562C003E25732041646465640D0A002D2D2D2DDB
:10563C003E4661696C656420746F2061646420254A
:10564C00730D0A005461736B303300005461736B3B
:10565C00303400005461736B303500005461736B4F
:10566C00303600007468652020636F756E74696E47
:10567C00672073656D6170686F7265207761732048
:10568C0073756363657366756C6C792063726561A1
:10569C00746564200D000000436F7553656D6F20B9
:1056AC00636F756E74206166746572206973202552
:1056BC006C640D0A000000002D2D2D2D3E204D4157
:1056CC005820434F554E54203D20256C64203B20E0
:1056DC00494E495449414C20434F554E5420256C5A
:1056EC0064200D0A000000007C2A2A205374617289
:1056FC0074205363686564756C6572202A2A7C0D6E
:10570C000000000000061016000610160000000035
:10571C000000000001020304060708090000000055
:10572C000102030449444C4500000000546D7251C1
:10573C0000000000546D72205376630018000020A6
:10574C00000000000000000000000000000000004D
:10575C00000000000000000000000000000000003D
:10576C00000000000000000000000000000000002D
:10577C00000000000000000000000000000000001D
:10578C00000000000000000000000000000000000D
:10579C0000000000000000000000000000000000FD
:1057AC00232D302B2000686C4C00656667454647FE
:1057BC000030313233343536373839414243444581
:1057CC0046003031323334353637383961626364F0
:0457DC0065660000FE
:0857E000D0AAFF7F01000000C8
:0457E800C5010008EF
:0457EC00A10100080F
:1057F0000300000001000000100000000024F4007D
:10580000AAAAAAAA18000020000000006C570008ED
:105810008C5700084C5700080000000000000000F2
:105820000000000000000000000000000000000078
:105830000000000000000000000000000000000068
:105840000000000000000000000000000000000058
:105850000000000000000000000000000000000048
:08586000000000000000000040
:04000005080044B9F2
:00000001FF
